:0420000040EF10F0AD
:082006000D6051826CEF71F0D6
:102018005180D8CF07F0E8CF08F0E0CF09F0E1CF42
:102028000AF0E2CF0BF0D9CF0CF0DACF0DF08EEC3E
:1020380078F00009D8B423EF10F025EF10F030EF56
:1020480010F0BDEC77F00E6E770E016E030E026E87
:102058000EC003F0BDEC73F00DC0DAFF0CC0D9FF61
:102068000BC0E2FF0AC0E1FF09C0E0FF08C0E8FFBB
:1020780007C0D8FF5190100091EF66F00000008073
:102088003F000020410000C84200007A4400401C84
:10209800460050C347002474498096184B20BCBEA4
:1020A8004C286B6E4EF9021550EC78AD60CAF249B7
:1020B800710000803FCDCCCC3D0AD7233C6F128302
:1020C8003A17B7D138ACC52737BD37863595BFD64F
:1020D8003377CC2B325F708930FFE6DB2E08E53C86
:1020E8001E6042A20D44238A22C3044722014154A0
:1020F800435A00000000000000000541544344001A
:102108000000000000000006415443510000000098
:102118000000000007415443480000000000000090
:1021280000084154435556000000000000000241D9
:1021380054435645520000000000000341544352E6
:10214800535400000000000104415443424C5253D0
:102158005400000001094154434D4F44454C0000D0
:1021680000000A415443534D4F44454C0000010DB3
:102178004154434600000000000000010C41544354
:102188004300000000000000010E41544343414C4D
:102198002500000000010F4154435A43414C000000
:1021A80000000110415443435A524100000000010D
:1021B80011415443435A5225000000000112415472
:1021C80043435350250000000002134154434F4637
:1021D80046250000000002144154434D4F44450079
:1021E800000000021541544354434D5000000000C4
:1021F800021641544357494E25000000000217417A
:1022080054434B4D46454D000000020B4154434397
:102218004F32414243000002194154434558544D3E
:102228000000000002184154435553454400000083
:1022380000021A415443424C44544D000000000926
:10224800024300020100C032090400000102020139
:1022580000052400100104240202052406000105DB
:102268002401000107058103080002090401000296
:102278000A0000000705020240000007058202402C
:1022880000003403440065006B00690073007400AB
:10229800200043006F002E002C0020004C0074002A
:1022A80064002E0000000000000000000000000094
:1022B8000000000000000000803F1872313FF0FD70
:1022C800753E4758633D58951D3C82C4AE3AA87880
:1022D8002139EF938037A092A7354656153401006F
:1022E80000000A00000064000000E8030000102756
:1022F8000000A086010040420F008096980000E18F
:10230800F50500CA9A3B00000000C4FF7F3F80EF3C
:10231800FFBE90E1A93EEC8276BE82AD2B3E0E3C1C
:10232800C3BD87D1133D4178D3BB1201000202001F
:102338000008D8040A00000101020001040309048E
:10234800554135382D4B46472D555F7465737400DC
:102358004665622030322032303233002D2D2D2D4B
:102368002C2D2D2D2D0031303A30333A343700657D
:0B23780072726F7200252E32660000AA
:10238400D5C0D9FFD6C0DAFFDF500001D76FD86BB4
:10239400FF0ED725FF0ED821800BD8A4D4EF11F05F
:1023A400D6EF11F0E4EF11F0D5C0D9FFD6C0DAFFB3
:1023B400DF50D76FFF0ED725D96FDA6BFF0EDA2304
:1023C400E8EF11F0000EDA6F000ED96FD9C0E7F014
:1023D400B00E0F6E020E106E030ED525116E000E98
:1023E400D621126E08EC6AF00F500001E86FB00EAF
:1023F400E825D96EDA6A020EDA22200EDF6EE82BA7
:1024040020EE02F0D551D926D651DA22090EDF6426
:102414000EEF12F010EF12F0DCEF18F020EE02F0E5
:10242400D551D926D651DA221A0EDF601CEF12F0EC
:102434001EEF12F0DCEF18F07A0E1F6E010E206E04
:102444003DEC77F0DCEF18F0B00EE825D96EDA6ACF
:10245400020EDA224F0EDF6EE82BB00EE825D96E9D
:10246400DA6A020EDA224B0EDF6EE82B46EF19F021
:10247400B00EE8250F6E106A020E1022480E116E7F
:10248400230E126E08EC6AF00F500001E82746EFA5
:1024940019F026C2CDF027C2CEF028C2CFF029C24F
:1024A400D0F0B00EE825D16FD26B020ED2231FEC10
:1024B40073F00001CD51E827B00EE825D96EDA6A31
:1024C400020EDA222C0EDF6EE82B2EC2CDF02FC2C4
:1024D400CEF030C2CFF031C2D0F0B00EE825D16FCB
:1024E400D26B020ED2231FEC73F00001CD51E8270A
:1024F400B00EE825D96EDA6A020EDA222C0EDF6EEF
:10250400E82B36C2CDF037C2CEF038C2CFF039C294
:10251400D0F0B00EE825D16FD26B020ED2231FEC9F
:1025240073F00001CD51E827B00EE825D96EDA6AC0
:10253400020EDA222C0EDF6EE82B3EC227F03FC2D9
:1025440028F0296A2A6AB00E0001E8252B6E2C6A4D
:10255400020E2C226CEC4FF027500001E82746EFC6
:1025640019F0000EE56F020EE565BBEF12F0BDEF4A
:1025740012F0BFEF12F06AEF13F0160EE525D96ED4
:10258400DA6A010EDA22DF50D8B4CBEF12F0CDEFC5
:1025940012F04EEF13F0E551040D9A0EF324D96EA8
:1025A400010EF420DA6EDECF35F0DECF36F0DECF6A
:1025B40037F0DECF38F0000E396E000E3A6E000EA2
:1025C4003B6E000E3C6E94EC67F0D8B0ECEF12F06A
:1025D400EEEF12F04EEF13F001012B51D8A4F5EFFA
:1025E40012F0F7EF12F04EEF13F00001E551D8B4FA
:1025F400FEEF12F000EF13F009EF13F0020EE519ED
:10260400D8A407EF13F009EF13F031EF13F0E551FD
:10261400080D2A0EF324D96E020EF420DA6EDECFF2
:102624001DF0DECF1EF0DECF1FF0DECF20F0E2EC97
:102634005AF01DC027F01EC028F01FC029F020C08A
:102644002AF0B00E0001E8252B6E2C6A020E2C2213
:102654006CEC4FF027500001E8275EEF13F0E551D2
:10266400080D2A0EF324D96E020EF420DA6EDECFA2
:10267400CDF0DECFCEF0DECFCFF0DECFD0F0B00E97
:10268400E825D16FD26B020ED2231FEC73F0000148
:10269400CD51E8275EEF13F0B00E0001E8250F6E70
:1026A400106A020E1022690E116E230E126E08ECCF
:1026B4006AF00F500001E827B00EE825D96EDA6AF7
:1026C400020EDA222C0EDF6EE82BE52BB5EF12F0AA
:1026D40001012B51D8A471EF13F073EF13F075EFD0
:1026E40013F09FEF12F0B00E0001E8250F6E106A90
:1026F400020E1022690E116E230E126E08EC6AF09F
:102704000F500001E82746EF19F046EF19F0000ECC
:10271400E66F020EE66591EF13F093EF13F095EF79
:1027240013F040EF14F0160EE625D96EDA6A010EA6
:10273400DA22DF50D8B4A1EF13F0A3EF13F024EFA3
:1027440014F0E651040D9A0EF324D96E010EF42010
:10275400DA6EDECF35F0DECF36F0DECF37F0DECF07
:1027640038F0000E396E000E3A6E000E3B6E000E0D
:102774003C6E94EC67F0D8B0C2EF13F0C4EF13F0E2
:1027840024EF14F001012B51D8A4CBEF13F0CDEFBB
:1027940013F024EF14F00001E651D8B4D4EF13F091
:1027A400D6EF13F0DFEF13F0020EE619D8A4DDEF35
:1027B40013F0DFEF13F007EF14F0E651080D2A0EC3
:1027C400F324D96E020EF420DA6EDECF1DF0DECFD4
:1027D4001EF0DECF1FF0DECF20F0E2EC5AF01DC079
:1027E40027F01EC028F01FC029F020C02AF0B00E28
:1027F4000001E8252B6E2C6A020E2C226CEC4FF0A3
:1028040027500001E82734EF14F0E651080D2A0E92
:10281400F324D96E020EF420DA6EDECFCDF0DECFD3
:10282400CEF0DECFCFF0DECFD0F0B00EE825D16F02
:10283400D26B020ED2231FEC73F00001CD51E827B6
:1028440034EF14F0B00E0001E8250F6E106A020E8A
:102854001022690E116E230E126E08EC6AF00F50EE
:102864000001E827B00EE825D96EDA6A020EDA22F2
:102874002C0EDF6EE82BE62B8BEF13F001012B51AE
:10288400D8A447EF14F049EF14F05DEF14F03EC202
:1028940027F03FC228F0296A2A6AB00E0001E82511
:1028A4002B6E2C6A020E2C226CEC4FF02750000188
:1028B400E8276DEF14F0B00E0001E8250F6E106AE2
:1028C400020E1022690E116E230E126E08EC6AF0CD
:1028D4000F500001E827B00EE825D96EDA6A020E1F
:1028E400DA222C0EDF6EE82B01011A51D8B47DEFE9
:1028F40014F07FEF14F0C8EF14F040C2DBF041C2D3
:10290400DCF042C2DDF043C2DEF07C05D8A48DEFDA
:1029140014F08FEF14F096EF14F0DB0E00019E6FAD
:10292400000E9F6F3DEC6EF0DBC0CDF0DCC0CEF04E
:10293400DDC0CFF0DEC0D0F0B00E0001E825D16FCD
:10294400D26B020ED2231FEC73F00001CD51E827A5
:10295400B00EE825D96EDA6A020EDA222C0EDF6E8A
:10296400E82B44C2CDF045C2CEF046C2CFF047C2F8
:10297400D0F0B00EE825D16FD26B020ED2231FEC3B
:1029840073F00001CD51E82746EF19F0B00E0001B5
:10299400E8250F6E106A020E1022640E116E230ECB
:1029A400126E08EC6AF00F500001E82746EF19F0A8
:1029B40001011A51D8B4E1EF14F0E3EF14F010EF71
:1029C40015F040C2DFF041C2E0F042C2E1F043C280
:1029D400E2F07C05D8A4F1EF14F0F3EF14F0FAEF71
:1029E40014F0DF0E00019E6F000E9F6F3DEC6EF041
:1029F400DFC0CDF0E0C0CEF0E1C0CFF0E2C0D0F057
:102A0400B00E0001E825D16FD26B020ED2231FEC69
:102A140073F00001CD51E82720EF15F0B00E00014E
:102A2400E8250F6E106A020E1022690E116E230E35
:102A3400126E08EC6AF00F500001E827B00EE8258A
:102A4400D96EDA6A020EDA222C0EDF6EE82B48C247
:102A5400CDF049C2CEF04AC2CFF04BC2D0F0B00E96
:102A6400E825D16FD26B020ED2231FEC73F0000164
:102A7400CD51E82746EF19F001017A51276E286AF3
:102A8400296A2A6AB00E0001E8252B6E2C6A020E10
:102A94002C226CEC4FF027500001E82746EF19F088
:102AA40001017B51276E286A296A2A6AB00E000147
:102AB400E8252B6E2C6A020E2C226CEC4FF027506A
:102AC4000001E82746EF19F020EE01F0D551D92690
:102AD400D651DA22DF50D8B472EF15F074EF15F046
:102AE40076EF15F026EF12F0B00EE825D96EDA6A0B
:102AF400020EDA22460EDF6EE82BB00EE825D96E00
:102B0400DA6A020EDA22410EDF6EE82BB00EE825F7
:102B1400D96EDA6A020EDA22490EDF6EE82BB00EA5
:102B2400E825D96EDA6A020EDA224C0EDF6EE82B43
:102B340046EF19F0030EE761A2EF15F0A4EF15F0CC
:102B440011EF16F0E751040D820EF324D96E010E35
:102B5400F420DA6EDECFCDF0DECFCEF0DECFCFF0D4
:102B6400DECFD0F0B00EE825D16FD26B020ED223A7
:102B74001FEC73F00001CD51E827B00EE825D96EA3
:102B8400DA6A020EDA222C0EDF6EE82BE751040D0E
:102B94008E0EF324D96E010EF420DA6EDECFCDF062
:102BA400DECFCEF0DECFCFF0DECFD0F0B00EE82512
:102BB400D16FD26B020ED2231FEC73F00001CD5102
:102BC400E827B00EE825D96EDA6A020EDA222C0E56
:102BD400DF6EE82BE751040D9A0EF324D96E010E33
:102BE400F420DA6EDECFCDF0DECFCEF0DECFCFF044
:102BF400DECFD0F0B00EE825D16FD26B020ED22317
:102C04001FEC73F00001CD51E827B00EE825D96E12
:102C1400DA6A020EDA222C0EDF6E99EF15F0B00E8E
:102C2400E8250F6E106A020E1022770E116E230E25
:102C3400126E08EC6AF00F500001E82746EF19F015
:102C4400E807000EE46F000EE36FE4BF33EF16F005
:102C5400E45109E1080EE35DD8A033EF16F035EF37
:102C640016F037EF16F046EF19F0DE0EE325D96EB5
:102C7400010EE421DA6EB00EE825E16EE26A020E7E
:102C8400E222DFCFE7FFE82BE34BE42B27EF16F03C
:102C940082C1CDF083C1CEF084C1CFF085C1D0F024
:102CA400B00EE825D16FD26B020ED2231FEC73F065
:102CB4000001CD51E827B00EE825D96EDA6A020E7C
:102CC400DA222C0EDF6EE82B86C1CDF087C1CEF060
:102CD40088C1CFF089C1D0F0B00EE825D16FD26B96
:102CE400020ED2231FEC73F00001CD51E827B00E81
:102CF400E825D96EDA6A020EDA222C0EDF6EE82B92
:102D04008AC1CDF08BC1CEF08CC1CFF08DC1D0F093
:102D1400B00EE825D16FD26B020ED2231FEC73F0F4
:102D24000001CD51E82746EF19F0030EE7619DEF4E
:102D340016F09FEF16F0BCEF16F0E751040D820E6B
:102D4400F324D96E010EF420DA6EDECFCDF0DECF9F
:102D5400CEF0DECFCFF0DECFD0F0B00EE825D16FCD
:102D6400D26B020ED2231FEC73F00001CD51E82781
:102D740046EF19F0B00EE8250F6E106A020E10220D
:102D8400770E116E230E126E08EC6AF00F500001DC
:102D9400E82746EF19F0030EE761D3EF16F0D5EFFD
:102DA40016F07EEF17F0E751040D9A0EF324D96E56
:102DB400010EF420DA6EDECFCDF0DECFCEF0DECF22
:102DC400CFF0DECFD0F0B00EE825D16FD26B020E7B
:102DD400D2231FEC73F00001CD51E827B00EE82593
:102DE400D96EDA6A020EDA222C0EDF6EE82BB00EF0
:102DF400E825A66FA76B020EA7237D0EA86F230EEE
:102E0400A96FE751040DA60EF324D96E010EF42028
:102E1400DA6EDECFAAF0DECFABF0DECFACF0DECFE1
:102E2400ADF0BFEC1FF00001A651E827B00EE82575
:102E3400D96EDA6A020EDA222C0EDF6EE82BE75125
:102E4400040D820EF324D96E010EF420DA6EDECF67
:102E5400CDF0DECFCEF0DECFCFF0DECFD0F0B00EAF
:102E6400E825D16FD26B020ED2231FEC73F0000160
:102E7400CD51E827B00EE825D96EDA6A020EDA22BF
:102E84002C0EDF6EE82BE751040D8E0EF324D96E61
:102E9400010EF420DA6EDECFCDF0DECFCEF0DECF41
:102EA400CFF0DECFD0F0B00EE825D16FD26B020E9A
:102EB400D2231FEC73F00001CD51E827B00EE825B2
:102EC400D96EDA6A020EDA222C0EDF6EE82BCAC142
:102ED400CDF0CBC1CEF0CCC1CFF0CDC1D0F0B00E8F
:102EE400E825D16FD26B020ED2231FEC73F00001E0
:102EF400CD51E82746EF19F0B00EE8250F6E106AA1
:102F0400020E1022770E116E230E126E08EC6AF078
:102F14000F500001E82746EF19F0E751D8A495EFC8
:102F240017F097EF17F0ACEF17F0B2C1CDF0B3C1C3
:102F3400CEF0B4C1CFF0B5C1D0F0B00EE825D16F5A
:102F4400D26B020ED2231FEC73F00001CD51E8279F
:102F540046EF19F0E705D8A4B2EF17F0B4EF17F075
:102F6400C9EF17F0B6C1CDF0B7C1CEF0B8C1CFF0FC
:102F7400B9C1D0F0B00EE825D16FD26B020ED223C6
:102F84001FEC73F00001CD51E82746EF19F0020E53
:102F9400E719D8A4D0EF17F0D2EF17F0E7EF17F046
:102FA400BAC1CDF0BBC1CEF0BCC1CFF0BDC1D0F031
:102FB400B00EE825D16FD26B020ED2231FEC73F052
:102FC4000001CD51E82746EF19F0030EE719D8A404
:102FD400EEEF17F0F0EF17F005EF18F0BEC127F091
:102FE400BFC128F0C0C129F0C1C12AF0B00EE82544
:102FF4002B6E2C6A020E2C226CEC4FF02750000131
:10300400E82746EF19F0040EE719D8A40CEF18F0DE
:103014000EEF18F023EF18F0C2C1CDF0C3C1CEF00B
:10302400C4C1CFF0C5C1D0F0B00EE825D16FD26BCA
:10303400020ED2231FEC73F00001CD51E82746EFB6
:1030440019F0050EE719D8A42AEF18F02CEF18F0A0
:1030540087EF13F0C6C1CDF0C7C1CEF0C8C1CFF021
:10306400C9C1D0F0B00EE825D16FD26B020ED223C5
:103074001FEC73F00001CD51E82746EF19F0040E60
:10308400E76147EF18F049EF18F063EF18F07E0E90
:10309400E725D96EDA6A010EDA22DF50D76FD751ED
:1030A400276E286A296A2A6AB00EE8252B6E2C6AD4
:1030B400020E2C226CEC4FF027500001E82746EF5B
:1030C40019F0B00EE8250F6E106A020E1022770E6A
:1030D400116E230E126E08EC6AF00F500001E827FF
:1030E40046EF19F0D2C127F0D3C128F0D4C129F09A
:1030F400D5C12AF0B00EE8252B6E2C6A020E2C22C4
:103104006CEC4FF027500001E82746EF19F0D6C1C8
:1031140027F0D7C128F0D8C129F0D9C12AF0B00EC0
:10312400E8252B6E2C6A020E2C226CEC4FF02750F3
:103134000001E82746EF19F0DAC127F0DBC128F0D7
:10314400DCC129F0DDC12AF0B00EE8252B6E2C6A13
:10315400020E2C226CEC4FF027500001E82746EFBA
:1031640019F001017D51276E286A296A2A6AB00E76
:103174000001E8252B6E2C6A020E2C226CEC4FF019
:1031840027500001E82746EF19F0CEC1CDF0CFC19A
:10319400CEF0D0C1CFF0D1C1D0F0B00EE825D16FC0
:1031A400D26B020ED2231FEC73F00001CD51E8273D
:1031B40046EF19F0000120EE02F0D551D926D65180
:1031C400DA22DF50010AD8B426EF12F0030AD8B489
:1031D4003AEF12F0070AD8B4DAEF14F0030AD8B4BD
:1031E400B3EF12F0010AD8B489EF13F00F0AD8B480
:1031F4004BEF12F0010AD8B423EF16F0030AD8B447
:1032040022EF16F0010AD8B4B3EF18F0070AD8B4C5
:1032140066EF15F0010AD8B466EF15F0030AD8B4C6
:103224009CEF15F0010AD8B426EF12F01F0AD8B4A7
:103234004AEF16F0010AD8B497EF16F0030AD8B48F
:10324400CDEF16F0010AD8B48FEF17F0070AD8B4FF
:103254003EEF15F0010AD8B452EF15F0030AD8B4C2
:1032640041EF18F0010AD8B4C7EF18F00F0AD8B428
:1032740089EF18F0010AD8B474EF18F0030AD8B42F
:103284009EEF18F046EF19F0B00EE825D96EDA6A11
:10329400020EDA220D0EDF6EE82BB00EE825D96E91
:1032A400DA6A020EDA220A0EDF6EE82BB00EE82587
:1032B400D96EDA6A020EDA22000EDF6EE82BB00E47
:1032C400166E020E176EE5EC76F01200D3C0D9FF2D
:1032D400D4C0DAFFDF500001D56FD66BFF0ED525C1
:1032E400FF0ED621800BD8A47AEF19F07CEF19F0E9
:1032F4008AEF19F0D3C0D9FFD4C0DAFFDF50D56FFD
:10330400FF0ED525D76FD86BFF0ED8238EEF19F09B
:10331400000ED86F000ED76FD7C0DCF040EF1FF05F
:10332400B7EC78F0BEEF1FF0B0EC78F0BEEF1FF012
:103334000F0ED3250F6E000ED421106E6FEC73F0B8
:10334400080E0F181010D8B4AAEF19F0ACEF19F04A
:10335400B0EF19F091EF1FF091EF1FF00F0E000185
:10336400D3250F6E000ED421106E000E126E080EBF
:10337400116E0AEC74F00009D8B4C3EF19F0C5EF6C
:1033840019F091EF1FF013EC77F0000E0001DA6FE3
:10339400000ED96FD951D325D56FDA51D421D66F08
:1033A4000F0ED525D96E000ED621DA6EDE0ED92584
:1033B400E16E010EDA21E26EDFCFE7FFD94BDA2BA3
:1033C400DABFEEEF19F0DA5109E1080ED95DD8A0A1
:1033D400EEEF19F0F0EF19F0CCEF19F091EF1FF0C8
:1033E4000F0ED3251B6E000ED4211C6E6BEC53F014
:1033F4001B500001DB6F020EDB6103EF1AF005EFD7
:103404001AF091EF1FF0DBC07AF191EF1FF00F0E6D
:10341400D3251B6E000ED4211C6E6BEC53F01B5095
:103424000001DB6F020EDB611AEF1AF01CEF1AF0D9
:1034340091EF1FF0DBC07BF191EF1FF0000E010153
:103444007C6F91EF1FF0010E01017C6F91EF1FF073
:10345400DC51D8A430EF1AF032EF1AF044EF1AF02E
:103464000F0ED325BF6F000ED421C06FAFEC42F016
:10347400BFC0B2F1C0C0B3F1C1C0B4F1C2C0B5F1B4
:1034840091EF1FF0DC05D8A44AEF1AF04CEF1AF0C4
:103494005EEF1AF00F0ED325BF6F000ED421C06F5C
:1034A400AFEC42F0BFC0B6F1C0C0B7F1C1C0B8F1D3
:1034B400C2C0B9F191EF1FF0020EDC19D8A465EF78
:1034C4001AF067EF1AF079EF1AF00F0ED325BF6FD9
:1034D400000ED421C06FAFEC42F0BFC0BAF1C0C03F
:1034E400BBF1C1C0BCF1C2C0BDF191EF1FF0030E2E
:1034F400DC19D8A480EF1AF082EF1AF094EF1AF0D6
:103504000F0ED3251B6E000ED4211C6E6BEC53F0F2
:103514001BC0BEF11CC0BFF11DC0C0F11EC0C1F173
:1035240091EF1FF0040EDC19D8A49BEF1AF09DEF65
:103534001AF0AFEF1AF00F0ED325BF6F000ED4218F
:10354400C06FAFEC42F0BFC0C2F1C0C0C3F1C1C094
:10355400C4F1C2C0C5F191EF1FF0050EDC19D8A467
:10356400B6EF1AF0B8EF1AF0AEEF19F00F0ED3253C
:10357400BF6F000ED421C06FAFEC42F0BFC0C6F1E4
:10358400C0C0C7F1C1C0C8F1C2C0C9F191EF1FF0FA
:10359400030EDC61D0EF1AF0D2EF1AF091EF1FF0B6
:1035A4000F0ED325136E000ED421146E2F0ED325C7
:1035B400156E000ED421166E030E176E200E186EB3
:1035C40022EC57F00001D56F020ED565ECEF1AF02E
:1035D400EEEF1AF091EF1FF02F0ED325BF6F000E00
:1035E400D421C06FAFEC42F00001DC51040D820E17
:1035F400F324D96E010EF420DA6EBFC0DEFFC0C022
:10360400DEFFC1C0DEFFC2C0DEFF4F0ED325BF6F99
:10361400000ED421C06FAFEC42F00001DC51040D68
:103624008E0EF324D96E010EF420DA6EBFC0DEFFD5
:10363400C0C0DEFFC1C0DEFFC2C0DEFF6F0ED325F7
:10364400BF6F000ED421C06FAFEC42F00001DC511B
:10365400040D9A0EF324D96E010EF420DA6EBFC065
:10366400DEFFC0C0DEFFC1C0DEFFC2C0DEFF48C255
:10367400CAF149C2CBF14AC2CCF14BC2CDF1DC5103
:10368400D8B447EF1BF049EF1BF052EF1BF0020ECA
:10369400DC19D8A450EF1BF052EF1BF0C4EF1BF061
:1036A400DC51040D9A0EF324D96E010EF420DA6E67
:1036B400DECF35F0DECF36F0DECF37F0DECF38F0B8
:1036C400000E396E000E3A6E000E3B6E000E3C6E1C
:1036D40094EC67F0D8B071EF1BF073EF1BF0AEEF12
:1036E40019F00001DC51040D820EF324D96E010E91
:1036F400F420DA6EDECFA2F0DECFA3F0DECFA4F0AA
:10370400DECFA5F0DC51040D8E0EF324D96E010E2C
:10371400F420DA6EDECF9EF0DECF9FF0DECFA0F095
:10372400DECFA1F09CEC74F09EC0A6F09FC0A7F081
:10373400A0C0A8F0A1C0A9F00001DC51040D9A0EAC
:10374400F324D96E010EF420DA6EDECFAAF0DECFB8
:10375400ABF0DECFACF0DECFADF0CBEC33F000015C
:10376400DC51040DA60EF324D96E010EF420DA6E9A
:10377400A6C0DEFFA7C0DEFFA8C0DEFFA9C0DEFF33
:1037840091EF1FF0DC51040D8E0EF324D96E010E5F
:10379400F420DA6EDECFA2F0DECFA3F0DECFA4F009
:1037A400DECFA5F0DC51040D820EF324D96E010E98
:1037B400F420DA6EDECF9EF0DECF9FF0DECFA0F0F5
:1037C400DECFA1F09CEC74F09EC0A6F09FC0A7F0E1
:1037D400A0C0A8F0A1C0A9F00001DC51040D9A0E0C
:1037E400F324D96E010EF420DA6EDECFA2F0DECF20
:1037F400A3F0DECFA4F0DECFA5F0660E9E6F660EBA
:103804009F6FA60EA06F410EA16F9CEC74F09EC03A
:10381400AAF09FC0ABF0A0C0ACF0A1C0ADF0CBEC5F
:1038240033F00001DC51040DA60EF324D96E010E11
:10383400F420DA6EA6C0DEFFA7C0DEFFA8C0DEFF5C
:10384400A9C0DEFF91EF1FF0BFEC69F091EF1FF00C
:10385400030EDC6130EF1CF032EF1CF091EF1FF02F
:103864000F0ED325BF6F000ED421C06FAFEC42F012
:103874000001DC51040D9A0EF324D96E010EF420DC
:10388400DA6EBFC0DEFFC0C0DEFFC1C0DEFFC2C053
:10389400DEFFDC51080D260EF324D96E020EF4204F
:1038A400DA6EDC51040D8E0EF324E16E010EF42069
:1038B400E26EDECFE6FFDECFE6FFDECFE6FFDECF51
:1038C400E6FFDC51D8B469EF1CF06BEF1CF074EF29
:1038D4001CF0020EDC19D8A472EF1CF074EF1CF07B
:1038E40097EF1CF0DC51040D9A0EF324D96E010EEF
:1038F400F420DA6EDECF35F0DECF36F0DECF37F0EF
:10390400DECF38F0000E396E000E3A6E000E3B6EBC
:10391400000E3C6E94EC67F0D8B093EF1CF095EF7A
:103924001CF091EF1FF073EF1BF0DC51040D8E0EB1
:10393400F324D96E010EF420DA6EDECFA2F0DECFCE
:10394400A3F0DECFA4F0DECFA5F0DC51040D820E8F
:10395400F324D96E010EF420DA6EDECF9EF0DECFB2
:103964009FF0DECFA0F0DECFA1F09CEC74F09EC0FF
:10397400A6F09FC0A7F0A0C0A8F0A1C0A9F00001C4
:10398400DC51040D9A0EF324D96E010EF420DA6E84
:10399400DECFA2F0DECFA3F0DECFA4F0DECFA5F021
:1039A400660E9E6F660E9F6FA60EA06F410EA16FEE
:1039B4009CEC74F09EC0AAF09FC0ABF0A0C0ACF029
:1039C400A1C0ADF0CBEC33F00001DC51040DA60E28
:1039D400F324D96E010EF420DA6EA6C0DEFFA7C070
:1039E400DEFFA8C0DEFFA9C0DEFF91EF1FF026C2F4
:1039F40082F127C283F128C284F129C285F12EC243
:103A040086F12FC287F130C288F131C289F136C202
:103A14008AF137C28BF138C28CF139C28DF19AC167
:103A240035F09BC136F09CC137F09DC138F0000ED3
:103A3400396E000E3A6E000E3B6E000E3C6E94EC36
:103A440067F0D8B028EF1DF02AEF1DF056EF1DF0F7
:103A540082C1A2F083C1A3F084C1A4F085C1A5F002
:103A64008EC19EF08FC19FF090C1A0F091C1A1F0D2
:103A74009CEC74F09EC0A6F09FC0A7F0A0C0A8F074
:103A8400A1C0A9F09AC1AAF09BC1ABF09CC1ACF053
:103A94009DC1ADF0CBEC33F0A6C0A6F1A7C0A7F151
:103AA400A8C0A8F1A9C0A9F1A2C135F0A3C136F0FC
:103AB400A4C137F0A5C138F0000E396E000E3A6E7D
:103AC400000E3B6E000E3C6E94EC67F0D8B06DEFC8
:103AD4001DF06FEF1DF09BEF1DF08AC1A2F08BC1AA
:103AE400A3F08CC1A4F08DC1A5F096C19EF097C13E
:103AF4009FF098C1A0F099C1A1F09CEC74F09EC015
:103B0400A6F09FC0A7F0A0C0A8F0A1C0A9F0A2C1D0
:103B1400AAF0A3C1ABF0A4C1ACF0A5C1ADF0CBEC4D
:103B240033F0A6C0AEF1A7C0AFF1A8C0B0F1A9C0F0
:103B3400B1F192C1A2F093C1A3F094C1A4F095C1D4
:103B4400A5F086C19EF087C19FF088C1A0F089C10D
:103B5400A1F09CEC74F09EC0A6F09FC0A7F0A0C09A
:103B6400A8F0A1C0A9F09EC1A2F09FC1A3F0A0C17A
:103B7400A4F0A1C1A5F0660E00019E6F660E9F6FB2
:103B8400A60EA06F410EA16F9CEC74F09EC0AAF02B
:103B94009FC0ABF0A0C0ACF0A1C0ADF0CBEC33F053
:103BA400A6C0AAF1A7C0ABF1A8C0ACF1A9C0ADF101
:103BB40048C2CAF149C2CBF14AC2CCF14BC2CDF1E1
:103BC40026EF1CF0030EDC61EAEF1DF0ECEF1DF0B4
:103BD40091EF1FF0DC51080D260EF324D96E020E6E
:103BE400F420DA6EDC51040D820EF324E16E010E32
:103BF400F420E26EDECFE6FFDECFE6FFDECFE6FFA7
:103C0400DECFE6FF48C2CAF149C2CBF14AC2CCF1C9
:103C14004BC2CDF1DC51D8B412EF1EF014EF1EF0FC
:103C24001DEF1EF0020EDC19D8A41BEF1EF01DEFD1
:103C34001EF040EF1EF0DC51040D9A0EF324D96EF1
:103C4400010EF420DA6EDECF35F0DECF36F0DECFB3
:103C540037F0DECF38F0000E396E000E3A6E000EEB
:103C64003B6E000E3C6E94EC67F0D8B03CEF1EF057
:103C74003EEF1EF091EF1FF073EF1BF0DC51040DCB
:103C84008E0EF324D96E010EF420DA6EDECFA2F08C
:103C9400DECFA3F0DECFA4F0DECFA5F0DC51040D1F
:103CA400820EF324D96E010EF420DA6EDECF9EF07C
:103CB400DECF9FF0DECFA0F0DECFA1F09CEC74F05D
:103CC4009EC0A6F09FC0A7F0A0C0A8F0A1C0A9F014
:103CD4000001DC51040D9A0EF324D96E010EF42078
:103CE400DA6EDECFA2F0DECFA3F0DECFA4F0DECF1B
:103CF400A5F0660E9E6F660E9F6FA60EA06F410E16
:103D0400A16F9CEC74F09EC0AAF09FC0ABF0A0C061
:103D1400ACF0A1C0ADF0CBEC33F00001DC51040DEC
:103D2400A60EF324D96E010EF420DA6EA6C0DEFFCF
:103D3400A7C0DEFFA8C0DEFFA9C0DEFF91EF1FF021
:103D4400040EDC61A8EF1EF0AAEF1EF091EF1FF045
:103D54000F0ED3251B6E000ED4211C6E6BEC53F09A
:103D64001B500001DB6FDB51D8B4BBEF1EF0BDEF7D
:103D74001EF091EF1FF0100EDB61C3EF1EF0C5EFD4
:103D84001EF091EF1FF07E0EDC25D96EDA6A010E6B
:103D9400DA22DBC0DFFFDC51180D500EF324156E60
:103DA400020EF420166E7E0EDC25D96EDA6A010E40
:103DB400DA22DF50176E2DEC46F091EF1FF00F0E54
:103DC400D3251B6E000ED4211C6E6BEC53F01BC06C
:103DD400D6F11CC0D7F11DC0D8F11EC0D9F191EFA6
:103DE4001FF00F0ED3251B6E000ED4211C6E6BEC3E
:103DF40053F01BC0D2F11CC0D3F11DC0D4F11EC0BE
:103E0400D5F191EF1FF00F0ED3251B6E000ED421B8
:103E14001C6E6BEC53F01B500001DB6F020EDB6178
:103E240016EF1FF018EF1FF091EF1FF0DBC07DF1CC
:103E340001017D51C3EC78F091EF1FF00F0ED325F3
:103E4400BF6F000ED421C06FAFEC42F0BFC0CEF103
:103E5400C0C0CFF1C1C0D0F1C2C0D1F1680E0F6EA5
:103E6400020E106ECEC111F0CFC112F0D0C113F00A
:103E7400D1C114F075EC78F091EF1FF020EE02F050
:103E8400D351D926D451DA22DF50030AD8B492EFA1
:103E940019F0070AD8B496EF19F00E0AD8B49AEFBD
:103EA40019F0010AD8B405EF1FF0070AD8B420EFBF
:103EB4001AF0010AD8B425EF1AF0030AD8B4CAEFED
:103EC4001AF0010AD8B426EF1CF01F0AD8B4F9EF8F
:103ED4001CF0010AD8B4E4EF1DF0030AD8B42AEFA9
:103EE4001CF0010AD8B42AEF1AF0070AD8B4F2EF8A
:103EF40019F0010AD8B409EF1AF0030AD8B4A2EFF2
:103F04001EF0010AD8B420EF1FF00F0AD8B4E1EF75
:103F14001EF0010AD8B4F3EF1EF091EF1FF0000178
:103F240020EE02F0D351D926D451DA22090EDF64EF
:103F34009EEF1FF0A0EF1FF0BEEF1FF020EE02F087
:103F4400D351D926D451DA221A0EDF60ACEF1FF018
:103F5400AEEF1FF0BEEF1FF07A0E1F6E010E206E43
:103F64002FEC74F00001D56F20EE01F0D351D92667
:103F7400D451DA22D5C0DFFF1200000E0001B96F60
:103F8400000EB86FAA0EB66F000EB76F3FEF24F0A5
:103F9400250ECC19D8B4D1EF1FF0D3EF1FF0DFEF0B
:103FA4001FF0A6C0D9FFA7C0DAFFCCC0DFFFA64B25
:103FB400A72BB84BB92B3FEF24F0000EBB6F000EBC
:103FC400BA6FA8C0F6FFA9C0F7FF0800F5502E0A83
:103FD400D8A4EFEF1FF0F1EF1FF030EF20F0BB8D0E
:103FE400A84BA92B000EC76F000EC66F1FEF20F061
:103FF400C6C00FF0C7C010F0000E126E0A0E116E8C
:1040040050EC77F00FC0C6F010C0C7F0D00E00011E
:10401400AE6FFF0EAF6FA8C0F6FFA9C0F7FF080090
:10402400F550B06FB16BAE51B027AF51B123B05161
:10403400C627B151C723A84BA92BA8C0F6FFA9C016
:10404400F7FF0800F5503DEC76F0D8B02CEF20F0E7
:104054002EEF20F0FAEF1FF03AEF20F0000EC76FBA
:10406400000EC66FBB893AEF20F0BB854FEF20F0FE
:10407400A8C0F6FFA9C0F7FF0001A84BA92B0800B0
:10408400F5CFCCF0CC51000AD8B450EF24F0660A36
:10409400D8B437EF20F03FEF24F0070EBB15D8B4A7
:1040A40056EF20F058EF20F0ECEF23F0BBA95DEFC2
:1040B40020F05FEF20F063EF20F0000EC76F060ED4
:1040C400C66FB6C0D9FFB7C0DAFFDECFC8F0DECF07
:1040D400C9F0DECFCAF0DECFCBF0040EB627000E57
:1040E400B723CBBF7AEF20F078EF20F08FEF20F0EA
:1040F400C8C00FF0C9C010F0CAC011F0CBC012F094
:10410400B6EC75F00FC0C8F010C0C9F011C0CAF009
:1041140012C0CBF0030E0001BA13000EC16F000EE3
:10412400C06FC8C035F0C9C036F0CAC037F0CBC0C4
:1041340038F0000E396E000E3A6E000E3B6E000E23
:104144003C6E94EC67F0D8B0AAEF20F0ACEF20F00E
:104154003FEF21F00001CA35CB35820FC06FC16B30
:10416400FF0EC123C007D8A0C107C0C00FF0C1C053
:1041740010F0000E126E030E116E50EC77F00FC0AB
:10418400C0F010C0C1F0C0C015F0C1C016F0000EE0
:10419400186E0A0E176E91EC62F015C0C0F016C0CE
:1041A400C1F00001C1BFDBEF20F0D9EF20F0DEEF5A
:1041B40020F0C007D8A0C107C0510008BDEC31F001
:1041C40081C0C2F082C0C3F083C0C4F084C0C5F013
:1041D400C2C068F0C3C069F0C4C06AF0C5C06BF067
:1041E400C8C06CF0C9C06DF0CAC06EF0CBC06FF02F
:1041F400A7EC2FF068C0C2F069C0C3F06AC0C4F075
:104204006BC0C5F0C2C00FF0C3C010F0C4C011F041
:10421400C5C012F0000E136E000E146E800E156EE3
:104224003F0E166EE7EC5BF0D8B01BEF21F01DEFEC
:1042340021F023EF21F00001C007D8A0C1073FEF10
:1042440021F0C2C00FF0C3C010F0C4C011F0C5C04B
:1042540012F0000E136E000E146E200E156E410E39
:10426400166EE7EC5BF0D8A03AEF21F03CEF21F0BA
:104274003FEF21F00001C04BC12B0001C7BF4EEF3F
:1042840021F0C75107E10D0EC65DD8B04CEF21F007
:104294004EEF21F06BEF21F0C8C08EF0C9C08FF053
:1042A400CAC090F0CBC091F0C651EAEC3EF081C098
:1042B40092F082C093F083C094F084C095F046ECF1
:1042C4002DF08EC0C8F08FC0C9F090C0CAF091C064
:1042D400CBF00001C1BF7AEF21F0C15107E10A0E12
:1042E400C05DD8B078EF21F07AEF21F0B7EF21F07C
:1042F400C8C035F0C9C036F0CAC037F0CBC038F0FA
:10430400000E396E000E3A6E000E3B6E000E3C6ECF
:1043140094EC67F0D8B091EF21F093EF21F00CEF1B
:1043240022F0C8C01DF0C9C01EF0CAC01FF0CBC027
:1043340020F0E2EC5AF01D501E101F102010D8A4DB
:10434400A6EF21F0A8EF21F00CEF22F00001C1BF8D
:10435400B5EF21F0C15109E1020EC05DD8A0B5EF5F
:1043640021F0B7EF21F00CEF22F0C2C00FF0C3C070
:1043740010F0C4C011F0C5C012F05F0E136E700EC1
:10438400146E890E156E400E166EE7EC5BF0D8B015
:10439400CEEF21F0D0EF21F0D7EF21F00001F70E9E
:1043A400C027FF0EC123DCEF21F00001F80EC02767
:1043B400FF0EC123C051BDEC31F081C0C2F082C0F8
:1043C400C3F083C0C4F084C0C5F0C8C00FF0C9C036
:1043D40010F0CAC011F0CBC012F0C2C013F0C3C0B9
:1043E40014F0C4C015F0C5C016F022EC52F00FC092
:1043F400BCF010C0BDF011C0BEF012C0BFF0000E82
:104404000001C86F000EC96F000ECA6F000ECB6F9B
:1044140048EF22F0C8C01DF0C9C01EF0CAC01FF08A
:10442400CBC020F0E2EC5AF01DC0BCF01EC0BDF0C1
:104434001FC0BEF020C0BFF0C8C09EF0C9C09FF02E
:10444400CAC0A0F0CBC0A1F0BCC027F0BDC028F00A
:10445400BEC029F0BFC02AF0000EF6EC48F027C019
:10446400A2F028C0A3F029C0A4F02AC0A5F09CECB7
:1044740074F09EC0C8F09FC0C9F0A0C0CAF0A1C02B
:10448400CBF0000E0001C16F000EC06F010ECC6FA7
:10449400CC51040DE60EF324F66E220EF420F76ED2
:1044A4000900F550BC5D0900F550BD590900F550EF
:1044B400BE590900F550BF59D8B063EF22F065EF3B
:1044C40022F067EF22F071EF22F0CC2B0A0ECC1908
:1044D400D8A46FEF22F071EF22F04AEF22F0030E1E
:1044E400BA15AE6F000EBB15AF6FAE51AF11D8B495
:1044F4007EEF22F080EF22F0D6EF22F0A6C0D9FFA3
:10450400A7C0DAFF2D0EDF6EA64BA72BB84BB92B35
:10451400D6EF22F0BCC00FF0BDC010F0BEC011F049
:10452400BFC012F0CC51040DE60EF324F66E220E39
:10453400F420F76E0900F5CF13F00900F5CF14F05D
:104544000900F5CF15F00A00F5CF16F03CEC68F041
:104554000FC0C2F010C0C3F011C0C4F012C0C5F047
:10456400C2C00FF0C3C010F0C4C011F0C5C012F037
:104574000A0E136E000E146E000E156E000E166EEB
:10458400DEEC6AF00FC0C2F010C0C3F011C0C4F07A
:1045940012C0C5F00001C251300FA6C0D9FFA7C098
:1045A400DAFFDF6E86EF22F0CC07CC29D8A4DDEF4A
:1045B40022F0DFEF22F08CEF22F0EEEF22F0A6C023
:1045C400D9FFA7C0DAFF300EDF6EA64BA72BB84B7E
:1045D400B92BC007D8A0C107C1BFFBEF22F0C1515E
:1045E40006E1C005D8B0F9EF22F0FBEF22F0E1EFCD
:1045F40022F0C7BF07EF23F0C75109E1090EC65DDA
:10460400D8A007EF23F009EF23F00DEF23F0080EF5
:10461400CC6F0FEF23F0C6C0CCF0CC51C65F000EB8
:10462400C75BCC51D8B419EF23F01BEF23F025EF6F
:1046340023F0A6C0D9FFA7C0DAFF2E0EDF6EA64B6B
:10464400A72BB84BB92BCC51BDEC31F081C0B2F0E3
:1046540082C0B3F083C0B4F084C0B5F0C8C06CF0BD
:10466400C9C06DF0CAC06EF0CBC06FF0B2C068F0C4
:10467400B3C069F0B4C06AF0B5C06BF0A7EC2FF01A
:1046840068C01DF069C01EF06AC01FF06BC020F046
:10469400E2EC5AF01DC0BCF01EC0BDF01FC0BEF05D
:1046A40020C0BFF0C8EF23F0BCC00FF0BDC010F0B5
:1046B400BEC011F0BFC012F0CC51040DE60EF324BD
:1046C400F66E220EF420F76E0900F5CF13F0090000
:1046D400F5CF14F00900F5CF15F00A00F5CF16F068
:1046E4003CEC68F00FC0C2F010C0C3F011C0C4F0BD
:1046F40012C0C5F0C2C00FF0C3C010F0C4C011F0A6
:10470400C5C012F00A0E136E000E146E000E156E64
:10471400000E166EDEEC6AF00FC0C2F010C0C3F0DB
:1047240011C0C4F012C0C5F00001C251300FA6C0C0
:10473400D9FFA7C0DAFFDF6EA64BA72BB84BB92B66
:10474400BCC00FF0BDC010F0BEC011F0BFC012F06D
:10475400CC51040DE60EF324F66E220EF420F76E0F
:104764000900F5CF13F00900F5CF14F00900F5CFD7
:1047740015F00A00F5CF16F0DEEC6AF00FC0BCF0BD
:1047840010C0BDF011C0BEF012C0BFF00001CC07D4
:10479400CC29D8A4D0EF23F0D2EF23F056EF23F0A6
:1047A400E1EF23F0A6C0D9FFA7C0DAFF300EDF6E19
:1047B400A64BA72BB84BB92BC607D8A0C707C65121
:1047C400C711D8A4E8EF23F0EAEF23F0D4EF23F0E5
:1047D4003FEF24F0C651C711D8A4F3EF23F0F5EF4F
:1047E40023F002EF24F0BC51BD11BE11BF11D8A4B7
:1047F400FEEF23F000EF24F002EF24F0C64BC72BAA
:10480400CC51AE6FAF6BC651AE5DAF51800AB06F85
:10481400C751800AB059D8B012EF24F014EF24F035
:1048240016EF24F028EF24F0CC51AE6FAF6BAE51ED
:10483400C65DC751800AB06FAF51800AB059D8B075
:1048440026EF24F028EF24F028EF24F0030EBA1505
:10485400AE6F000EBB15AF6FAE51AF11D8B435EFCC
:1048640024F037EF24F03FEF24F0A6C0D9FFA7C00F
:10487400DAFF2D0EDF6ED9EF1FF0A8C0F6FFA9C036
:10488400F7FFA84BA92B0800F5CFCCF0CC51D8A446
:104894004EEF24F050EF24F0CAEF1FF0A6C0D9FF6A
:1048A400A7C0DAFF000EDF6EB8C0A6F0B9C0A7F04B
:1048B400120023EE50F010EE94F0110EDBCFE3FF64
:1048C400E806FCE2580EF66E230EF76E0800F5506B
:1048D4003F0AD8B470EF24F072EF24F0ACEF24F068
:1048E4005F0EF66E230EF76E0800F5500F6E106A19
:1048F400030E126EE80E116E50EC77F0600EF66E39
:10490400230EF76E0800F550640DF3CF68F0F4CF72
:1049140069F0610EF66E230EF76E0800F5500A0D6D
:10492400F35000016827F45069230F506827105092
:104934006923620EF66E230EF76E0800F5506827A1
:10494400000E6923B00E68256E6F2F0E69216F6FFC
:10495400B1EF24F0000E00016F6F630E6E6F940EC2
:104964006E259E6FF80E6F219F6F580EF66E230E04
:10497400F76E0800F5503F0AD8B4C3EF24F0C5EF32
:1049840024F093EF26F0580EF66E230EF76E08000F
:10499400F5504A0AD8A4D1EF24F0D3EF24F0EFEF76
:1049A40024F0590EF66E230EF76E0800F550610AD6
:1049B400D8A4DFEF24F0E1EF24F0EFEF24F05A0E57
:1049C400F66E230EF76E0800F5506E0AD8B4EDEFBC
:1049D40024F0EFEF24F089EF26F0580EF66E230E44
:1049E400F76E0800F550460AD8B4FBEF24F0FDEF4B
:1049F40024F07FEF26F0580EF66E230EF76E0800B3
:104A0400F5504D0AD8A409EF25F00BEF25F027EF58
:104A140025F0590EF66E230EF76E0800F550610A64
:104A2400D8A417EF25F019EF25F027EF25F05A0E3B
:104A3400F66E230EF76E0800F550720AD8B425EF0F
:104A440025F027EF25F075EF26F0580EF66E230EAD
:104A5400F76E0800F550410AD8A433EF25F035EF7E
:104A640025F043EF25F0590EF66E230EF76E08007D
:104A7400F550700AD8B441EF25F043EF25F06BEF01
:104A840026F0580EF66E230EF76E0800F5504D0A08
:104A9400D8A44FEF25F051EF25F06DEF25F0590E16
:104AA400F66E230EF76E0800F550610AD8A45DEF88
:104AB40025F05FEF25F06DEF25F05A0EF66E230E0C
:104AC400F76E0800F550790AD8B46BEF25F06DEF56
:104AD40025F061EF26F0580EF66E230EF76E0800EF
:104AE400F5504A0AD8A479EF25F07BEF25F097EF2B
:104AF40025F0590EF66E230EF76E0800F550750A70
:104B0400D8A487EF25F089EF25F097EF25F05A0E0A
:104B1400F66E230EF76E0800F5506E0AD8B495EFC2
:104B240025F097EF25F057EF26F0580EF66E230E7A
:104B3400F76E0800F5504A0AD8A4A3EF25F0A5EFB4
:104B440025F0C1EF25F0590EF66E230EF76E08001E
:104B5400F550750AD8A4B1EF25F0B3EF25F0C1EFF5
:104B640025F05A0EF66E230EF76E0800F5506C0A07
:104B7400D8B4BFEF25F0C1EF25F04DEF26F0580E65
:104B8400F66E230EF76E0800F550410AD8A4CDEF57
:104B940025F0CFEF25F0DDEF25F0590EF66E230E4C
:104BA400F76E0800F550750AD8B4DBEF25F0DDEF99
:104BB40025F043EF26F0580EF66E230EF76E08002C
:104BC400F550530AD8B4E9EF25F0EBEF25F039EFAF
:104BD40026F0580EF66E230EF76E0800F5504F0AB5
:104BE400D8B4F7EF25F0F9EF25F02FEF26F0580EA3
:104BF400F66E230EF76E0800F5504E0AD8B405EF92
:104C040026F007EF26F025EF26F0580EF66E230E59
:104C1400F76E0800F550440AD8B413EF26F015EFE8
:104C240026F01BEF26F0000E896F630E886F1FEFCE
:104C340026F0000E896F0C0E886F88C086F089C03C
:104C440087F029EF26F0000E876F0B0E866F86C063
:104C540084F087C085F033EF26F0000E856F0A0ECE
:104C6400846F84C082F085C083F03DEF26F0000E8F
:104C7400836F090E826F82C080F083C081F047EF9A
:104C840026F0000E816F080E806F80C07EF081C018
:104C94007FF051EF26F0000E7F6F070E7E6F7EC00F
:104CA4007CF07FC07DF05BEF26F0000E7D6F060E7A
:104CB4007C6F7CC07AF07DC07BF065EF26F0000E3F
:104CC4007B6F050E7A6F7AC078F07BC079F06FEF56
:104CD40026F0000E796F040E786F78C076F079C0F4
:104CE40077F079EF26F0000E776F030E766F76C0BB
:104CF40074F077C075F083EF26F0000E756F020E26
:104D0400746F74C072F075C073F08DEF26F0000EEE
:104D1400736F010E726F72C070F073C071F097EF11
:104D240026F0000E716F630E706FFF0E70259C6F7E
:104D3400FF0E71219D6F580EF66E230EF76E08005C
:104D4400F5503F0AD8B4A9EF26F0ABEF26F0E9EF0F
:104D540026F05C0EF66E230EF76E300E0800F5603A
:104D6400B6EF26F0B8EF26F0BEEF26F0000E8D6FFA
:104D7400000E8C6FD5EF26F05C0EF66E230EF76EE8
:104D84000800F5CF68F0D00E68250F6E106AFF0E8C
:104D94001022000E126E0A0E116E50EC77F00FC046
:104DA4008CF010C08DF05D0EF66E230EF76E0800C9
:104DB400F55000018C25686F000E8D21696FD00EAF
:104DC40068258A6FFF0E69218B6FEDEF26F0000EC8
:104DD4008B6F630E8A6F8AC09AF08BC09BF06E0E45
:104DE400F66E230EF76E0800F5503F0AD8B4FDEFB7
:104DF40026F0FFEF26F01BEF27F06E0EF66E230E63
:104E0400F76E0800F5500A0DF3CF68F0F4CF69F09F
:104E14006F0EF66E230EF76E0800F5506827000E2D
:104E24006923F00E68258E6FFD0E69218F6F1FEFC9
:104E340027F0000E8F6F630E8E6FF70E8E25986F1E
:104E4400FF0E8F21996F6E0EF66E230EF76E08001B
:104E5400F5503F0AD8B431EF27F033EF27F04FEF86
:104E640027F0710EF66E230EF76E0800F5500A0D4A
:104E7400F3CF68F0F4CF69F0720EF66E230EF76E7E
:104E84000800F5506827000E6923F00E6825906F1E
:104E9400FD0E6921916F53EF27F0000E916F630EA1
:104EA400906F90C096F091C097F06E0EF66E230E40
:104EB400F76E0800F5503F0AD8B463EF27F065EFAA
:104EC40027F081EF27F0740EF66E230EF76E0800BC
:104ED400F5500A0DF3CF68F0F4CF69F0750EF66E55
:104EE400230EF76E0800F5506827000E6923F00EB4
:104EF4006825926FFD0E6921936F85EF27F0000EF0
:104F0400936F630E926F92C094F093C095F0940ED9
:104F1400366E000E376E12EC45F036C06AF037C0BC
:104F24006BF038C06CF039C06DF06AC064F06BC0CF
:104F340065F06CC066F06DC067F012000001E36FAD
:104F44008EEF2AF0DFC00FF0E0C010F0E1C011F0E6
:104F5400E2C012F0000E136E000E146EA00E156E59
:104F6400C10E166EE7EC5BF0D8A0BBEF27F0BDEFE7
:104F740027F04EEF28F0DFC00FF0E0C010F0E1C0E2
:104F840011F0E2C012F0000E136E000E146EA00EAB
:104F9400156E410E166EE7EC5BF0D8B0D4EF27F037
:104FA400D6EF27F04EEF28F0000E0001CE6F000E72
:104FB400CF6F000ED06F400ED16FDFC0CAF0E0C0DB
:104FC400CBF0E1C0CCF0E2C0CDF0E1EC43F0CAC0DC
:104FD400E4F0CBC0E5F0CCC0E6F0CDC0E7F0CD0EF8
:104FE40000016C6FCC0E6D6F8C0E6E6FBF0E6F6F09
:104FF400DFC068F0E0C069F0E1C06AF0E2C06BF0C5
:10500400A7EC2FF068C092F069C093F06AC094F0E6
:105014006BC095F00A0E00016C6FD70E6D6FA30E76
:105024006E6F3C0E6F6FE4C068F0E5C069F0E6C0D7
:105034006AF0E7C06BF0A7EC2FF068C08EF069C08F
:105044008FF06AC090F06BC091F046EC2DF08EC0EA
:10505400E8F08FC0E9F090C0EAF091C0EBF0E8C04E
:105064008EF0E9C08FF0EAC090F0EBC091F0660ECC
:105074000001926F660E936FE30E946F420E956F6C
:1050840046EC2DF08EC0ECF08FC0EDF090C0EEF049
:1050940091C0EFF09EEF2AF0DFC00FF0E0C010F0F7
:1050A400E1C011F0E2C012F0000E136E000E146E97
:1050B400A00E156E410E166EE7EC5BF0D8A065EFFE
:1050C40028F067EF28F0B0EF28F0DFC00FF0E0C061
:1050D40010F0E1C011F0E2C012F0000E136E000EE9
:1050E400146EF00E156E410E166EE7EC5BF0D8B040
:1050F4007EEF28F080EF28F0B0EF28F0660E000174
:105104006C6F660E6D6FE60E6E6FBF0E6F6FDFC055
:1051140068F0E0C069F0E1C06AF0E2C06BF0A7ECAF
:105124002FF068C08EF069C08FF06AC090F06BC039
:1051340091F0000E0001926F000E936F080E946FB1
:10514400430E956F46EC2DF08EC0ECF08FC0EDF061
:1051540090C0EEF091C0EFF09EEF2AF0DFC00FF0A8
:10516400E0C010F0E1C011F0E2C012F0000E136EC6
:10517400000E146EF00E156E410E166EE7EC5BF029
:10518400D8A0C7EF28F0C9EF28F012EF29F0DFC04C
:105194000FF0E0C010F0E1C011F0E2C012F0000E18
:1051A400136E000E146E200E156E420E166EE7EC92
:1051B4005BF0D8B0E0EF28F0E2EF28F012EF29F02E
:1051C400CD0E00016C6FCC0E6D6F4C0E6E6FBE0E6B
:1051D4006F6FDFC068F0E0C069F0E1C06AF0E2C060
:1051E4006BF0A7EC2FF068C08EF069C08FF06AC036
:1051F40090F06BC091F0000E0001926F000E936F5F
:10520400B00E946F420E956F46EC2DF08EC0ECF00C
:105214008FC0EDF090C0EEF091C0EFF09EEF2AF059
:10522400DFC00FF0E0C010F0E1C011F0E2C012F0F6
:10523400000E136E000E146E200E156E420E166EC6
:10524400E7EC5BF0D8A029EF29F02BEF29F061EF10
:1052540029F0000E0F6E000E106E700E116E420ECD
:10526400126EDFC013F0E0C014F0E1C015F0E2C02C
:1052740016F0E7EC5BF0D8A042EF29F044EF29F0F8
:1052840061EF29F0000E00019E6F000E9F6FF00E7B
:10529400A06F420EA16FDFC0A2F0E0C0A3F0E1C096
:1052A400A4F0E2C0A5F09CEC74F09EC0ECF09FC0AA
:1052B400EDF0A0C0EEF0A1C0EFF09EEF2AF0000EDA
:1052C4000001EC6F000EED6FC80EEE6F420EEF6F33
:1052D4009EEF2AF0DFC00FF0E0C010F0E1C011F043
:1052E400E2C012F0000E136E000E146EA00E156EC6
:1052F400C10E166EE7EC5BF0D8A083EF29F085EFC2
:1053040029F09EEF29F0000E0F6E000E106E480E6D
:10531400116E420E126EDFC013F0E0C014F0E1C053
:1053240015F0E2C016F0E7EC5BF0D8B09CEF29F082
:105334009EEF29F0A9EF29F0000E0001EC6F000E9A
:10534400ED6FC80EEE6F420EEF6F9EEF2AF0710EF6
:1053540000016C6F3D0E6D6F8A0E6E6FBE0E6F6F27
:10536400DFC068F0E0C069F0E1C06AF0E2C06BF051
:10537400A7EC2FF068C08EF069C08FF06AC090F07F
:105384006BC091F0660E0001926F660E936FD20EA1
:10539400946F420E956F46EC2DF08EC0ECF08FC0EA
:1053A400EDF090C0EEF091C0EFF09EEF2AF0DFC078
:1053B4000FF0E0C010F0E1C011F0E2C012F0000EF6
:1053C400136E000E146EA00E156EC10E166EE7EC71
:1053D4005BF0D8A0F0EF29F0F2EF29F00BEF2AF000
:1053E400000E0F6E000E106EA00E116E410E126EA6
:1053F400DFC013F0E0C014F0E1C015F0E2C016F015
:10540400E7EC5BF0D8B009EF2AF00BEF2AF016EFC7
:105414002AF0000E0001EC6F000EED6FC80EEE6F67
:10542400420EEF6F9EEF2AF0000E0001CE6F000EC9
:10543400CF6F000ED06F400ED16FDFC0CAF0E0C056
:10544400CBF0E1C0CCF0E2C0CDF0E1EC43F0CAC057
:10545400E4F0CBC0E5F0CCC0E6F0CDC0E7F0140E2C
:1054640000016C6FAE0E6D6FC70E6E6FBE0E6F6F68
:10547400DFC068F0E0C069F0E1C06AF0E2C06BF040
:10548400A7EC2FF068C092F069C093F06AC094F062
:105494006BC095F00A0E00016C6FD70E6D6F230E72
:1054A4006E6F3C0E6F6FE4C068F0E5C069F0E6C053
:1054B4006AF0E7C06BF0A7EC2FF068C08EF069C00B
:1054C4008FF06AC090F06BC091F046EC2DF08EC066
:1054D400E8F08FC0E9F090C0EAF091C0EBF0E8C0CA
:1054E4008EF0E9C08FF0EAC090F0EBC091F0CD0EE1
:1054F4000001926FCC0E936FD00E946F420E956F95
:1055040046EC2DF08EC0ECF08FC0EDF090C0EEF0C4
:1055140091C0EFF09EEF2AF00001E351000AD8B4E5
:10552400A4EF27F0010AD8B46CEF29F0030AD8B429
:10553400D9EF29F09EEF2AF0ECC0A6F0EDC0A7F059
:10554400EEC0A8F0EFC0A9F0000E0001AA6F000E93
:10555400AB6FC80EAC6F420EAD6FCBEC33F0A6C090
:10556400DFF0A7C0E0F0A8C0E1F0A9C0E2F01200AB
:10557400000E00018C6F20EE81F00A0EDE6AE80650
:10558400FDE220EE60F01F0EDE6AE806FDE2000E8A
:10559400906F000E8F6F000E806F29C0D9FF2AC054
:1055A400DAFFDF50916F1FEF2DF0410E9119D8B43F
:1055B400DEEF2AF0E0EF2AF0FBEF2AF0540E911907
:1055C400D8B4E7EF2AF0E9EF2AF0FBEF2AF0610EF6
:1055D4009119D8B4F0EF2AF0F2EF2AF0FBEF2AF099
:1055E400740E9119D8A4F9EF2AF0FBEF2AF032EFE8
:1055F4002DF0810E9025D96EDA6A000EDA2291C060
:10560400DFFF902B010E90650AEF2BF00CEF2BF0CF
:1056140032EF2DF0410E8119D8B413EF2BF015EFB2
:105624002BF01EEF2BF0610E8119D8A41CEF2BF088
:105634001EEF2BF034EF2BF0540E8219D8B425EF63
:105644002BF027EF2BF030EF2BF0740E8219D8A437
:105654002EEF2BF030EF2BF034EF2BF0010E8C6F8C
:1056640032EF2DF0020E806F32EF2DF0200E9119E3
:10567400D8A43FEF2BF041EF2BF047EF2BF0020EB5
:105684008C6F000E8F6F32EF2DF0080E90654DEF8A
:105694002BF04FEF2BF0FAEF2BF0410E8119D8B419
:1056A40056EF2BF058EF2BF061EF2BF0610E8119C0
:1056B400D8A45FEF2BF061EF2BF0FAEF2BF0540E30
:1056C4008219D8B468EF2BF06AEF2BF073EF2BF04C
:1056D400740E8219D8A471EF2BF073EF2BF0FAEF4C
:1056E4002BF0430E8319D8B47AEF2BF07CEF2BF018
:1056F40085EF2BF0630E8319D8A483EF2BF085EF8D
:105704002BF0FAEF2BF0530E8419D8B48CEF2BF056
:105714008EEF2BF097EF2BF0730E8419D8A495EF2E
:105724002BF097EF2BF0FAEF2BF04D0E8519D8B430
:105734009EEF2BF0A0EF2BF0A9EF2BF06D0E851947
:10574400D8A4A7EF2BF0A9EF2BF0FAEF2BF04F0E14
:105754008619D8B4B0EF2BF0B2EF2BF0BBEF2BF0DF
:105764006F0E8619D8A4B9EF2BF0BBEF2BF0FAEF2C
:105774002BF0440E8719D8B4C2EF2BF0C4EF2BF0F2
:10578400CDEF2BF0640E8719D8A4CBEF2BF0CDEF1F
:105794002BF0FAEF2BF0450E8819D8B4D4EF2BF088
:1057A400D6EF2BF0DFEF2BF0650E8819D8A4DDEFD0
:1057B4002BF0DFEF2BF0FAEF2BF04C0E8919D8B455
:1057C400E6EF2BF0E8EF2BF0F1EF2BF06C0E8919DC
:1057D400D8A4EFEF2BF0F1EF2BF0FAEF2BF0020E41
:1057E4008C6F000E8F6F91C060F08F2B32EF2DF015
:1057F4000D0E9119D8B401EF2CF003EF2CF00CEF3F
:105804002CF00A0E9119D8A40AEF2CF00CEF2CF00E
:1058140010EF2CF0030E8C6F32EF2DF00A0E906512
:1058240016EF2CF018EF2CF01AEF2CF0000E906FFE
:10583400810E9025D96EDA6A000EDA2291C0DFFF5C
:10584400902B32EF2DF00D0E9119D8B42CEF2CF0D3
:105854002EEF2CF00CEF2CF00A0E9119D8A435EF92
:105864002CF037EF2CF039EF2CF00CEF2CF01F0E4E
:105874008F653FEF2CF041EF2CF043EF2CF0000E3E
:105884008F6F600E8F25D96EDA6A000EDA2291C00E
:10589400DFFFF7EF2BF0000E8D6F810E226E000EEE
:1058A400236E8D0E246E000E256E86EC65F00001CD
:1058B4008E6F8EBF60EF2CF062EF2CF01CEF2DF09A
:1058C4002BC0D9FF2CC0DAFF8DC0DFFF8E510D0D28
:1058D400F50EF324F66E200EF420F76E20EE02F09F
:1058E4002B50D9262C50DA220800F5CFDFFF8E5139
:1058F4000D0D0C0EF326000EF422F50EF324F66EB5
:10590400200EF420F76E20EEAFF02B50D9262C5049
:10591400DA220800F5CFDFFF030E2B240F6E000EF2
:105924002C20106E810E116E000E126E08EC6AF0BF
:1059340000EF2DF020EE0EF02B50D9262C50DA2259
:10594400000EDF6E19EF2DF00F0E2B24106E000EDB
:105954002C20116E600E126E000E136E98EC6AF01D
:1059640020EE0EF02B50D9262C50DA22010EDF6ED9
:1059740019EF2DF00F0E2B24106E000E2C20116E3B
:10598400600E126E000E136E98EC6AF01050111037
:10599400D8A4CFEF2CF0D3EF2CF02D6A2D2AD4EF1E
:1059A4002CF02D6A20EE0EF02B50D9262C50DA2242
:1059B4002DC0DFFF19EF2DF00F0E2B240F6E000EFC
:1059C4002C20106E600E116E000E126E08EC6AF040
:1059D4000F501010D8A4F1EF2CF0F5EF2CF02D6A35
:1059E4002D2AF6EF2CF02D6A20EE0EF02B50D9263E
:1059F4002C50DA222DC0DFFF19EF2DF020EEAFF08E
:105A04002B50D9262C50DA22DF50000AD8B49CEF50
:105A14002CF0010AD8B4A6EF2CF0030AD8B4BCEFDA
:105A24002CF0010AD8B4DEEF2CF019EF2DF0010EA2
:105A340045EF2DF0020E45EF2DF08C51000AD8B43D
:105A4400D7EF2AF0010AD8B438EF2BF0030AD8B400
:105A540025EF2CF0010AD8B44DEF2CF032EF2DF0E5
:105A64009151D8B438EF2DF03AEF2DF03CEF2DF0F2
:105A7400294A2A2A9151D8A442EF2DF044EF2DF05F
:105A8400CFEF2AF08051120000019151800B9A6FE0
:105A9400915191259C6F90AF52EF2DF054EF2DF062
:105AA40055EF2DF09C819C51D8B45BEF2DF05DEF48
:105AB4002DF072EF2DF09C29D8A463EF2DF065EF43
:105AC4002DF06DEF2DF0000E8E6F000E8F6F000E17
:105AD400906F000E916F908F000E916F7AEF2DF002
:105AE400000E8E6F000E8F6F000E906F000E916F80
:105AF4009551800B9B6F9A519B19D8B484EF2DF06C
:105B040086EF2DF087EF2DF09A8D955195259B6F9B
:105B140094AF8FEF2DF091EF2DF092EF2DF09B814C
:105B24009B51D8B498EF2DF09AEF2DF0AFEF2DF0F4
:105B34009B29D8A4A0EF2DF0A2EF2DF0AAEF2DF011
:105B4400000E926F000E936F000E946F000E956F0F
:105B5400948F000E956FB7EF2DF0000E926F000E2C
:105B6400936F000E946F000E956F9C519B5DD8B09F
:105B7400BEEF2DF0C0EF2DF0E7EF2DF09AADC5EF9D
:105B84002DF0C7EF2DF0C9EF2DF0800E9A1B9CC0AD
:105B94009DF09BC09CF09DC09BF08EC09DF092C078
:105BA4008EF09DC092F08FC09DF093C08FF09DC089
:105BB40093F090C09DF094C090F09DC094F091C07B
:105BC4009DF095C091F09DC095F0000E9D6F9C5185
:105BD4009BC096F0976B965F000E975B97BFFCEFA8
:105BE4002DF0975109E11A0E965DD8A0FCEF2DF027
:105BF400FEEF2DF035EF2EF08E518F119011911193
:105C0400D8A407EF2EF00AEF2EF0010E0BEF2EF0C2
:105C1400000E9D6F000E8E6F000E8F6F000E906F42
:105C2400000E916F9BC09CF03EEF2EF09DA11DEFE6
:105C34002EF01FEF2EF025EF2EF0D8909D310109A4
:105C44009D6F27EF2EF0D8909D338EA12CEF2EF070
:105C54002EEF2EF02FEF2EF09D8F91359133903350
:105C64008F338E339C2B9B519C5DD8A03CEF2EF040
:105C74003EEF2EF018EF2EF09ABD43EF2EF045EFD5
:105C84002EF085EF2EF09C51D8A44BEF2EF04DEF63
:105C94002EF057EF2EF0000E8E6F000E8F6F000E59
:105CA400906F000E916FA6EF2FF092518E279351B3
:105CB4008F23945190239551912391A164EF2EF059
:105CC40066EF2EF012EF2FF09DA16BEF2EF06DEF2B
:105CD4002EF073EF2EF0D8909D3101099D6F75EF72
:105CE4002EF0D8909D338EA17AEF2EF07CEF2EF01B
:105CF4007DEF2EF09D8F9135913390338F338E331A
:105D04009C2B12EF2FF092518E5D93518F59945129
:105D140090599151800A966F9551800A9659D8B03E
:105D240096EF2EF098EF2EF0C3EF2EF08E51925D89
:105D3400966F8F519359976F90519459986F9151D1
:105D44009559996FFF0E96258E6FFF0E97218F6FD1
:105D5400FF0E9821906FFF0E9921916F800E9A1B70
:105D64009D6D9D51D8A4B9EF2EF0BBEF2EF0CBEF73
:105D74002EF0010E8E27000E8F2390239123CBEF5C
:105D84002EF092518E5F93518F5B9451905B95519D
:105D9400915B8E518F1190119111D8A4D4EF2EF0F4
:105DA400D6EF2EF00BEF2FF09D51D8A4DCEF2EF0A0
:105DB400DEEF2EF00BEF2FF0000E8E6F000E8F6FC4
:105DC400000E906F000E916FA6EF2FF0D8908E37D3
:105DD4008F37903791379DAFF2EF2EF0F4EF2EF01E
:105DE400F5EF2EF08E819DA1FAEF2EF0FCEF2EF050
:105DF40000EF2FF0D8809D3702EF2FF0D8909D3719
:105E04009C51D8B408EF2FF00AEF2FF00BEF2FF0CE
:105E14009C0790AF10EF2FF012EF2FF0E8EF2EF069
:105E2400000E9B6F9DAF19EF2FF01BEF2FF033EF98
:105E34002FF09DC096F07F0E9617D8B424EF2FF064
:105E440026EF2FF02AEF2FF0010E9B6F33EF2FF088
:105E54008EA12FEF2FF031EF2FF033EF2FF026EF3D
:105E64002FF09B51D8B439EF2FF03BEF2FF066EFB2
:105E74002FF0010E8E27000E8F239023912391A1E2
:105E840046EF2FF048EF2FF066EF2FF08EC096F01C
:105E94008FC097F090C098F091C099F099359933DC
:105EA40098339733963396C08EF097C08FF098C08E
:105EB40090F099C091F09C29D8B463EF2FF065EF6E
:105EC4002FF066EF2FF09C2B9C29D8B46CEF2FF0A9
:105ED4006EEF2FF076EF2FF09C51D8A474EF2FF0D3
:105EE40076EF2FF088EF2FF0000E8E6F000E8F6F7D
:105EF400000E906F000E916F9C51D8A484EF2FF088
:105F040086EF2FF088EF2FF0000E9A6F9CA18DEF93
:105F14002FF08FEF2FF092EF2FF0908F93EF2FF061
:105F2400909FD8909C31916F9AAF9BEF2FF09DEF8B
:105F34002FF09EEF2FF0918F8EC08EF08FC08FF0D8
:105F440090C090F091C091F0120000016B51800B51
:105F5400746F6B516B257A6F6AAFB3EF2FF0B5EFA7
:105F64002FF0B6EF2FF07A817A51D8B4BCEF2FF02E
:105F7400BEEF2FF0D1EF2FF07A29D8A4C4EF2FF081
:105F8400C6EF2FF0CEEF2FF0000E686F000E696F92
:105F9400000E6A6F000E6B6F6A8FD9EF2FF0000E40
:105FA400686F000E696F000E6A6F000E6B6F6F51A1
:105FB400800B741B6F516F25756F6EAFE4EF2FF07C
:105FC400E6EF2FF0E7EF2FF075817551D8B4EDEFC0
:105FD4002FF0EFEF2FF002EF30F07529D8A4F5EF92
:105FE4002FF0F7EF2FF0FFEF2FF0000E6C6F000E85
:105FF4006D6F000E6E6F000E6F6F6E8F0AEF30F0D4
:10600400000E6C6F000E6D6F000E6E6F000E6F6FE2
:106014007551D8B410EF30F012EF30F01AEF30F0C1
:106024007A51D8A418EF30F01AEF30F024EF30F0A2
:10603400000E686F000E696F000E6A6F000E6B6FC2
:10604400BCEF31F06E516803F3CF7FF0F4CF80F0F2
:106054007F51766F776B786B796B80517B6F7C6B3C
:106064007D6B7E6B6D516903F3CF7FF0F4CF80F0CD
:106074007F517627000E77237823792380517B275D
:10608400000E7C237D237E236C516A03F3CF7FF0C3
:10609400F4CF80F07F517627000E7723782379237D
:1060A40080517B27000E7C237D237E2378C079F0EA
:1060B40077C078F076C077F0766B6C516903F3CFD4
:1060C4007FF0F4CF80F07F51762780517723000E44
:1060D4007823000E79236D516803F3CF7FF0F4CF5A
:1060E40080F07F51762780517723000E7823000EAD
:1060F400792378C079F077C078F076C077F0766B42
:106104006C516803F3CF7FF0F4CF80F07F51762792
:1061140080517723000E7823000E79236E51690392
:10612400F3CF7FF0F4CF80F07F517B2780517C2325
:10613400000E7D23000E7E236D516A03F3CF7FF0A2
:10614400F4CF80F07F517B2780517C23000E7D2388
:10615400000E7E236E516A03F3CF7FF0F4CF80F0FC
:106164007F51706F8051716F726B736B72C073F07B
:1061740071C072F070C071F0706B70517B277151F7
:106184007C2372517D2373517E2376C070F077C0D7
:1061940071F078C072F079C073F0190ED7EF30F057
:1061A400D8907333723371337033E82ED2EF30F0FA
:1061B40070517B2771517C2372517D2373517E234F
:1061C40078C079F077C078F076C077F0766B755147
:1061D4007AC070F0716B7027000E7123820E7025E7
:1061E4007F6FFF0E7121806F0DEF31F0D8907B37F8
:1061F4007C377D377E3779AF02EF31F004EF31F031
:1062040005EF31F07B81D890763777377837793757
:106214007F07D8A080077DAF12EF31F014EF31F083
:10622400F8EF30F0000E756F79AF1BEF31F01DEF12
:1062340031F041EF31F0FF0E7615706FFF0E7715D8
:10624400716FFF0E7815726F7F0E7915736F705131
:10625400711172117311D8B432EF31F034EF31F09F
:1062640038EF31F0010E756F41EF31F07BA13DEF56
:1062740031F03FEF31F041EF31F034EF31F075514F
:10628400D8B447EF31F049EF31F06DEF31F0010E42
:106294007B27000E7C237D237E237EA154EF31F0E7
:1062A40056EF31F06DEF31F07BC070F07CC071F0CF
:1062B4007DC072F07EC073F0733573337233713303
:1062C400703370C07BF071C07CF072C07DF073C01D
:1062D4007EF07F4B802B80BF78EF31F0805108E156
:1062E4007F29D8A078EF31F07AEF31F084EF31F0E4
:1062F400000E7B6F000E7C6F800E7D6F7F0E7E6FB5
:10630400B2EF31F080BF91EF31F0805106E17F05AB
:10631400D8B08FEF31F091EF31F09DEF31F0000EF6
:106324007B6F000E7C6F000E7D6F000E7E6F000E83
:10633400746FB2EF31F07FC07AF0FF0E7B17FF0E5F
:106344007C177F0E7D17000E7E177AA1ACEF31F01B
:10635400AEEF31F0AFEF31F07D8FD8907A317E6FB0
:1063640074517E137BC068F07CC069F07DC06AF014
:106374007EC06BF012000001896F000189BFC7EF76
:1063840031F0C5EF31F0CAEF32F0896D8951800ADE
:10639400120FD8A0D0EF31F0D2EF31F05DEF32F030
:1063A400000E186E0A0E176E000E126E640E116E39
:1063B40089510F6E106A0FBE100639EC66F00FC0DB
:1063C40015F010C016F091EC62F0090E1526155068
:1063D400040DB90EF324F66E200EF420F76E0900B6
:1063E400F5CF6CF00900F5CF6DF00900F5CF6EF034
:1063F4000A00F5CF6FF0000E186E640E176E0001E0
:106404008951156E166A15BE160691EC62F0120ECD
:1064140015261550040DB90EF324F66E200EF42043
:10642400F76E0900F5CF68F00900F5CF69F00900AF
:10643400F5CF6AF00A00F5CF6BF0A7EC2FF068C037
:1064440085F069C086F06AC087F06BC088F085C0AB
:1064540068F086C069F087C06AF088C06BF0000EEF
:10646400126E0A0E116E000189510F6E106A0FBE72
:10647400100639EC66F00F50040DB90EF324F66ED5
:10648400200EF420F76E0900F5CF6CF00900F5CF6B
:106494006DF00900F5CF6EF00A00F5CF6FF0A7ECB0
:1064A4002FF068C081F069C082F06AC083F06BC0CD
:1064B40084F0CAEF33F08951800A750FD8A065EFD4
:1064C40032F067EF32F0B4EF32F0000E186E0A0EBD
:1064D400176E8951156E166A15BE160691EC62F098
:1064E400090E15261550040DB90EF324F66E200E70
:1064F400F420F76E0900F5CF68F00900F5CF69F0D4
:106504000900F5CF6AF00A00F5CF6BF0000E126EA9
:106514000A0E116E000189510F6E106A0FBE10062B
:1065240039EC66F00F50040DB90EF324F66E200E0C
:10653400F420F76E0900F5CF6CF00900F5CF6DF08B
:106544000900F5CF6EF00A00F5CF6FF0A7EC2FF03D
:1065540068C081F069C082F06AC083F06BC084F0C7
:10656400CAEF33F08951040DB90EF324F66E200EF0
:10657400F420F76E0900F5CF81F00900F5CF82F021
:106584000900F5CF83F00A00F5CF84F0CAEF33F0A9
:106594008951800A120FD8A0D2EF32F0D4EF32F032
:1065A4005FEF33F0000E186E0A0E176E000E126EB7
:1065B400640E116E89510F6E106A0FBE100639EC0D
:1065C40066F00FC015F010C016F091EC62F0090EE1
:1065D40015261550040D850EF324F66E200EF420B6
:1065E400F76E0900F5CF6CF00900F5CF6DF00900E6
:1065F400F5CF6EF00A00F5CF6FF0000E186E640E42
:10660400176E00018951156E166A15BE160691ECB7
:1066140062F0120E15261550040D850EF324F66E45
:10662400200EF420F76E0900F5CF68F00900F5CFCD
:1066340069F00900F5CF6AF00A00F5CF6BF0A7EC1A
:106644002FF068C085F069C086F06AC087F06BC01F
:1066540088F085C068F086C069F087C06AF088C099
:106664006BF0000E126E0A0E116E000189510F6E4E
:10667400106A0FBE100639EC66F00F50040D850E3B
:10668400F324F66E200EF420F76E0900F5CF6CF0BB
:106694000900F5CF6DF00900F5CF6EF00A00F5CFD3
:1066A4006FF0A7EC2FF068C081F069C082F06AC077
:1066B40083F06BC084F0CAEF33F08951800A750F00
:1066C400D8A067EF33F069EF33F0B6EF33F0000E84
:1066D400186E0A0E176E8951156E166A15BE1606C7
:1066E40091EC62F0090E15261550040D850EF32465
:1066F400F66E200EF420F76E0900F5CF68F009005D
:10670400F5CF69F00900F5CF6AF00A00F5CF6BF018
:10671400000E126E0A0E116E000189510F6E106A7E
:106724000FBE100639EC66F00F50040D850EF324ED
:10673400F66E200EF420F76E0900F5CF6CF0090018
:10674400F5CF6DF00900F5CF6EF00A00F5CF6FF0CC
:10675400A7EC2FF068C081F069C082F06AC083F0B2
:106764006BC084F0CAEF33F08951040D850EF32415
:10677400F66E200EF420F76E0900F5CF81F00900C3
:10678400F5CF82F00900F5CF83F00A00F5CF84F04D
:1067940012000001A951800BB66FA951A925BD6F44
:1067A400A8AFD7EF33F0D9EF33F0DAEF33F0BD8190
:1067B400BD51D8B4E0EF33F0E2EF33F0F7EF33F04C
:1067C400BD29D8A4E8EF33F0EAEF33F0F2EF33F069
:1067D400000EA66F000EA76F000EA86F000EA96F23
:1067E400A88F000EA96FFFEF33F0000EA66F000E06
:1067F400A76F000EA86F000EA96FAD51800BB61BDA
:10680400AD51AD25BE6FACAF0AEF34F00CEF34F0F0
:106814000DEF34F0BE81BE51D8B413EF34F015EF50
:1068240034F02AEF34F0BE29D8A41BEF34F01DEF66
:1068340034F025EF34F0000EAA6F000EAB6F000E9B
:10684400AC6F000EAD6FAC8F000EAD6F32EF34F055
:10685400000EAA6F000EAB6F000EAC6F000EAD6F92
:10686400AA51AB11AC11AD11D8A43BEF34F03DEFFC
:1068740034F055EF34F0000EA66F000EA76F000E33
:10688400A86F000EA96F800EA8137F0EA913B6512E
:10689400A913A6C0A6F0A7C0A7F0A8C0A8F0A9C0D5
:1068A400A9F098EF35F0BD51D8A45BEF34F05DEF5B
:1068B40034F067EF34F0000EA66F000EA76F000EE1
:1068C400A86F000EA96F98EF35F0BE51BDC0AEF0B1
:1068D400AF6BAE5F000EAF5B7F0EAE25B76F000EE1
:1068E400AF21B86FA6C0B2F0A7C0B3F0A8C0B4F08F
:1068F400A9C0B5F0000EA66F000EA76F000EA86F1A
:10690400000EA96F000EB96F000EBA6F000EBB6FB8
:10691400000EBC6F000EBE6FC8EF34F0BE51D8B489
:1069240096EF34F098EF34F0AFEF34F0D890B237FC
:10693400B337B437B537D890A637A737A837A937B0
:10694400BCAFA7EF34F0A9EF34F0AAEF34F0A6817E
:10695400D890B937BA37BB37BC37AA51B25DAB51FF
:10696400B359AC51B459AD51B559D8A0BCEF34F0BA
:10697400BEEF34F0C7EF34F0BC8DAA51B25FAB5117
:10698400B35BAC51B45BAD51B55BBE2B190EBE65A8
:10699400CEEF34F0D0EF34F090EF34F0B251B311C5
:1069A400B411B511D8B4D9EF34F0DBEF34F0F3EF10
:1069B40034F0B981F3EF34F0D890A637A737A8376D
:1069C400A937BCAFE8EF34F0EAEF34F0EBEF34F082
:1069D400A681D890B937BA37BB37BC37B707D8A028
:1069E400B807A8AFF8EF34F0FAEF34F0DEEF34F084
:1069F400000EBE6FBCAF01EF35F003EF35F027EFAB
:106A040035F0FF0EB915AE6FFF0EBA15AF6FFF0E5E
:106A1400BB15B06F7F0EBC15B16FAE51AF11B01185
:106A2400B111D8B418EF35F01AEF35F01EEF35F088
:106A3400010EBE6F27EF35F0A6A123EF35F025EF49
:106A440035F027EF35F01AEF35F0BE51D8B42DEFFD
:106A540035F02FEF35F053EF35F0010EA627000E79
:106A6400A723A823A923A9A13AEF35F03CEF35F0D9
:106A740053EF35F0A6C0AEF0A7C0AFF0A8C0B0F099
:106A8400A9C0B1F0B135B133B033AF33AE33AEC01A
:106A9400A6F0AFC0A7F0B0C0A8F0B1C0A9F0B74B42
:106AA400B82BB8BF5EEF35F0B85108E1B729D8A0CC
:106AB4005EEF35F060EF35F06BEF35F0000EB86F38
:106AC400B769000EA66F000EA76F000EA86F000E28
:106AD400A96FB8BF78EF35F0B85106E1B705D8B063
:106AE40076EF35F078EF35F086EF35F0000EB86FBD
:106AF400000EB76F000EA66F000EA76F000EA86FF2
:106B0400000EA96F000EB66FB7C0BDF0BDA18DEF2A
:106B140035F08FEF35F092EF35F0A88F93EF35F025
:106B2400A89FD890BD31A96F49EF34F01200040139
:106B34003205D8A4A0EF35F0A2EF35F0BEEF35F062
:106B440030511F0B0009D8A4AAEF35F0ACEF35F093
:106B5400BEEF35F0448E030E3119D8A4B4EF35F0EE
:106B6400B6EF35F0BBEF35F0010E0101736FBEEFE8
:106B740035F0000E0101736F04013251D8A4C5EF42
:106B840035F0C7EF35F045EF37F030511F0B020AEF
:106B9400D8A4CFEF35F0D1EF35F045EF37F03451CD
:106BA4000F0B0009D8B4D9EF35F0DBEF35F045EF22
:106BB40037F034510F0B236E030E2360E4EF35F0EE
:106BC400E6EF35F045EF37F0200E4F18D8A4EDEF7F
:106BD40035F0EFEF35F045EF37F0448E34BFF5EF85
:106BE40035F0F7EF35F014EF36F034510F0B236E18
:106BF4002350020D230EF324D96E010EF420DA6E15
:106C0400DECF28F0DDCF29F034510F0B236E246A38
:106C1400540E2324D96E010E2420DA6EDF50276E21
:106C24002FEF36F034510F0B236E2350020DF80E64
:106C3400F324D96E000EF420DA6EDECF28F0DDCF17
:106C440029F034510F0B236E246A570E2324D96E76
:106C5400010E2420DA6EDF50276E27B034EF36F0B1
:106C640036EF36F03EEF36F0FB0E2814286EFF0E9A
:106C74002914296E43EF36F0040E2810286E29508B
:106C8400296E34BF48EF36F04AEF36F05BEF36F04A
:106C940034510F0B236E2350020D230EF324D96EAF
:106CA400010EF420DA6E28C0DEFF29C0DDFF6AEF92
:106CB40036F034510F0B236E2350020DF80EF324DB
:106CC400D96E000EF420DA6E28C0DEFF29C0DDFF85
:106CD400030E3119D8A471EF36F073EF36F0ADEF2F
:106CE40036F028C0D9FF29C0DAFFDFAE7CEF36F0DA
:106CF4007EEF36F09FEF36F034BF83EF36F085EF4A
:106D040036F093EF36F034510F0B236E246A540E91
:106D14002324D96E010E2420DA6E0101DF829FEF55
:106D240036F034510F0B236E246A570E2324D96E88
:106D3400010E2420DA6E0101DF8228C0D9FF29C0A8
:106D4400DAFF000EDB8428C0D9FF29C0DAFF000E69
:106D5400DB8E45EF37F0040E2818286E2950296E73
:106D640028C0D9FF29C0DAFFDFAEBBEF36F0BDEF94
:106D740036F0D9EF36F028C0D9FF29C0DAFF7F0EEC
:106D8400DF1628C0D9FF29C0DAFF000EDB8C000E05
:106D94001C6E050E1B6E28C01DF029C01EF0000ECF
:106DA400206E020E1F6E8EEC68F0DFEF36F028C006
:106DB400D9FF29C0DAFF000EDB8C040E2818286ED8
:106DC4002950296E27B2E9EF36F0EBEF36F0F6EFF3
:106DD40036F028C0D9FF29C0DAFFDFAEF4EF36F071
:106DE400F6EF36F02EEF37F0040134BFFCEF36F047
:106DF400FEEF36F00CEF37F034510F0B236E246A9C
:106E0400540E2324D96E010E2420DA6E0101DF9280
:106E140018EF37F034510F0B236E246A570E2324D6
:106E2400D96E010E2420DA6E0101DF9228C0D9FF49
:106E340029C0DAFF3B0EDF16000E1C6E050E1B6E1A
:106E440028C01DF029C01EF0000E206E020E1F6E19
:106E54008EEC68F034EF37F028C0D9FF29C0DAFF90
:106E64003B0EDF16040134510F0B236E246A260EE9
:106E74002324256E0F0E2420266E25C0D9FF26C09C
:106E8400DAFFFE0EDF1612000501FD6F000E05018C
:106E9400F26F000EF36F800EF46F3F0EF56F020E6B
:106EA400FD19D8B458EF37F05AEF37F081EF37F0C7
:106EB400110EFD25D96EDA6A010EDA22DF50D8B43C
:106EC40066EF37F068EF37F076EF37F0130EFD25F5
:106ED400D96EDA6A010EDA22DF50D8A474EF37F0E3
:106EE40076EF37F081EF37F0000EE7EF38F0050E5C
:106EF400F66F90EF37F0030EF66F90EF37F0FD5119
:106F0400000AD8B479EF37F0010AD8B479EF37F032
:106F1400030AD8B47DEF37F090EF37F0F70E256E03
:106F2400050E266EFD51CEEC76F00009D8B49DEF27
:106F340037F09FEF37F076EF37F0F7C581F0F8C5FB
:106F440082F0F6C583F01CEC6DF081C0F9F582C0C7
:106F5400FAF583C0FBF584C0FCF50501FD05D8A452
:106F6400B6EF37F0B8EF37F0CAEF37F0F9C50FF0E6
:106F7400FAC510F0FBC511F0FCC512F0B6EC75F0C3
:106F84000FC0F9F510C0FAF511C0FBF512C0FCF5FD
:106F94000501FD51180D500EF3240001BF6F020EC0
:106FA400F420C06FF9C5C1F0FAC5C2F0FBC5C3F047
:106FB400FCC5C4F081EC3DF0BFC0F9F5C0C0FAF5E2
:106FC400C1C0FBF5C2C0FCF501017B05D8A4EDEFFF
:106FD40037F0EFEF37F003EF38F022C2DFF023C2CF
:106FE400E0F024C2E1F025C2E2F00501FD51A0EC7D
:106FF40027F0DFC0F2F5E0C0F3F5E1C0F4F5E2C03C
:10700400F5F5F9C568F0FAC569F0FBC56AF0FCC589
:107014006BF0F2C56CF0F3C56DF0F4C56EF0F5C518
:107024006FF0A7EC2FF00501FD51080D000EF324BD
:10703400D96E020EF420DA6E000168C0DEFF69C06A
:10704400DEFF6AC0DEFF6BC0DEFF0501FD51080DE7
:10705400000EF324D96E020EF420DA6EDECFBFF0F8
:10706400DECFC0F0DECFC1F0DECFC2F0FD517DEC4B
:107074003AF00501FD51080D040EF324D96E020EF9
:10708400F420DA6E0001BFC0DEFFC0C0DEFFC1C065
:10709400DEFFC2C0DEFF0501FD51D8B454EF38F065
:1070A40056EF38F05FEF38F0020EFD19D8A45DEF0B
:1070B40038F05FEF38F083EF38F0FD51080D040E1F
:1070C400F324D96E020EF420DA6EDECF9EF0DECF0A
:1070D4009FF0DECFA0F0DECFA1F0C8EC52F00501A6
:1070E400FD51080D040EF324D96E020EF420DA6E5D
:1070F40000019EC0DEFF9FC0DEFFA0C0DEFFA1C076
:10710400DEFF01017A05D8A48AEF38F08CEF38F05D
:10711400B1EF38F00501FD51080D040EF324D96ECA
:10712400020EF420DA6EDECF1BF0DECF1CF0DECFD1
:107134001DF0DECF1EF0FD5179EC41F00501FD514B
:10714400080D040EF324D96E020EF420DA6E1BC06F
:10715400DEFF1CC0DEFF1DC0DEFF1EC0DEFF05011A
:10716400FD51080D040EF324D96E020EF420DA6EDC
:10717400DECF8EF0DECF8FF0DECF90F0DECF91F059
:10718400FD51040DB20EF324D96E010EF420DA6E13
:10719400DECF92F0DECF93F0DECF94F0DECF95F029
:1071A40046EC2DF00501FD51080D040EF324D96EB3
:1071B400020EF420DA6E00018EC0DEFF8FC0DEFF07
:1071C40090C0DEFF91C0DEFF010E120048EF3AF0DE
:1071D40063EC77F0000E0101426F000E436F000E66
:1071E400446F000E456F010E0E6F7CEF3AF045516F
:1071F4004411431109E1150E425DD8A004EF39F0A2
:1072040006EF39F07CEF3AF0000E426F000E436F48
:10721400000E446F000E456F020E0E6F7CEF3AF0C5
:10722400020E62EC75F0000E0101426F000E436F16
:10723400000E446F000E456F0B0E0E6F030E0F6FA2
:10724400140E106F7CEF3AF064EC61F001011A6FD8
:10725400020E53EC59F0000E0101426F000E436F11
:10726400000E446F000E456F0B0E0E6F040E0F6F71
:107274000A0E106F7CEF3AF0020EABEC6EF0000ECB
:107284000101426F000E436F000E446F000E456F04
:107294000B0E0E6F050E0F6F22EF39F0020E46EC47
:1072A40037F00101186F060E0E6F7CEF3AF0000103
:1072B400FF514BEC78F0000E0101426F000E436F5A
:1072C400000E446F000E456F0B0E0E6F070E0F6F0E
:1072D40022EF39F00001FF5146EC37F00001F46F62
:1072E400160EFF25D96EDA6A010EDA22F4C0DFFF2A
:1072F400FF2B000E0101426F000E436F000E446F1E
:10730400000E456F0B0E0E6F060E0F6F3AEF39F03D
:107314001651D8B490EF39F092EF39F0A6EF39F066
:107324001751D8B498EF39F09AEF39F0A6EF39F045
:107334001851D8B4A0EF39F0A2EF39F0A6EF39F024
:10734400080E0E6F7CEF3AF0000E0E6F7CEF3AF0F1
:1073540000C226F201C227F202C228F203C229F2B5
:1073640008C22EF209C22FF20AC230F20BC231F265
:1073740010C236F211C237F212C238F213C239F215
:1073840004C22AF205C22BF206C22CF207C22DF265
:107394000CC232F20DC233F20EC234F20FC235F215
:1073A40014C23AF215C23BF216C23CF217C23DF2C5
:1073B4001951D8B4E0EF39F0E2EF39F0E6EF39F0E3
:1073C40018C23EF219C23FF21AC240F21BC241F285
:1073D4001CC242F21DC243F21EC244F21FC245F255
:1073E40020C246F221C247F222C248F223C249F225
:1073F40024C24AF225C24BF20A0E0E6F7CEF3AF019
:10740400000E426F000E436F000E446F000E456F76
:10741400010E0E6F7CEF3AF0020E0001FF19D8A4A2
:1074240016EF3AF018EF3AF01FEF3AF0000EFF6F44
:10743400090E01010E6F7CEF3AF010C1F4F0F56B08
:10744400F66BF76B010142510001F45D01014351F8
:107454000001F559010144510001F659010145515A
:107464000001F759D8B039EF3AF03BEF3AF07CEF2E
:107474003AF0000E0101426F000E436F000E446F9C
:10748400000E456F0FC10EF17CEF3AF001010E5171
:10749400000AD8B4EAEF38F0010AD8B4F9EF38F0AA
:1074A400030AD8B412EF39F0010AD8B426EF39F040
:1074B400070AD8B43EEF39F0010AD8B450EF39F0D6
:1074C400030AD8B459EF39F0010AD8B46CEF39F093
:1074D4000F0AD8B4AAEF39F0010AD8B48AEF39F008
:1074E400030AD8B402EF3AF0010AD8B40EEF3AF026
:1074F4007CEF3AF012000001F36F0001F351040D28
:10750400820EF324D96E010EF420DA6EF351040DC9
:10751400E70EF324E16E000EF420E26EDECFE6FF08
:10752400DECFE6FFDECFE6FFDECFE6FFF351040D4C
:107534008E0EF324D96E010EF420DA6EF351040D8D
:10754400CB0EF324E16E000EF420E26EDECFE6FFF4
:10755400DECFE6FFDECFE6FFDECFE6FFF351040D1C
:107564009A0EF324D96E010EF420DA6EF351040D51
:10757400D70EF324E16E000EF420E26EDECFE6FFB8
:10758400DECFE6FFDECFE6FFDECFE6FFF351D8A481
:10759400CEEF3AF0D0EF3AF04CEF3BF0F351040D5C
:1075A400E70EF324D96E000EF420DA6EDECFA2F0DB
:1075B400DECFA3F0DECFA4F0DECFA5F0F351040DAF
:1075C400CB0EF324D96E000EF420DA6EDECF9EF0DB
:1075D400DECF9FF0DECFA0F0DECFA1F09CEC74F004
:1075E4009EC0AAF09FC0ABF0A0C0ACF0A1C0ADF0AB
:1075F4000001F351040DD70EF324D96E000EF420CC
:10760400DA6EDECFA6F0DECFA7F0DECFA8F0DECFB5
:10761400A9F0CBEC33F0A6C068F0A7C069F0A8C00D
:107624006AF0A9C06BF00001F351040DE70EF324D6
:10763400D96E000EF420DA6EDECFA2F0DECFA3F016
:10764400DECFA4F0DECFA5F0BFC09EF0C0C09FF097
:10765400C1C0A0F0C2C0A1F09CEC74F09EC06CF05C
:107664009FC06DF0A0C06EF0A1C06FF0A7EC2FF02A
:1076740068C0E3F069C0E4F06AC0E5F06BC0E6F00E
:10768400E3C0BFF0E4C0C0F0E5C0C1F0E6C0C2F0A2
:1076940008EF3CF0F305D8A452EF3BF054EF3BF075
:1076A400FDEF3BF0F351040DCB0EF324D96E000E25
:1076B400F420DA6EDECFA2F0DECFA3F0DECFA4F0AA
:1076C400DECFA5F0F351040DE70EF324D96E000EBE
:1076D400F420DA6EDECF9EF0DECF9FF0DECFA0F096
:1076E400DECFA1F09CEC74F09EC0AAF09FC0ABF07A
:1076F400A0C0ACF0A1C0ADF00001F351040DE70E41
:10770400F324D96E000EF420DA6EDECFA2F0DECFC1
:10771400A3F0DECFA4F0DECFA5F0BFC09EF0C0C0C2
:107724009FF0C1C0A0F0C2C0A1F09CEC74F09EC058
:107734006CF09FC06DF0A0C06EF0A1C06FF00001AE
:10774400F351040DD70EF324D96E000EF420DA6E33
:10775400DECFA2F0DECFA3F0DECFA4F0DECFA5F023
:10776400660E9E6F660E9F6FA60EA06F410EA16FF0
:107774009CEC74F09EC068F09FC069F0A0C06AF0F1
:10778400A1C06BF0A7EC2FF068C0A6F069C0A7F009
:107794006AC0A8F06BC0A9F0CBEC33F0A6C0C7F068
:1077A400A7C0C8F0A8C0C9F0A9C0CAF0C7C08EF06D
:1077B400C8C08FF0C9C090F0CAC091F0660E000135
:1077C400926F660E936FA60E946F410E956F46EC02
:1077D4002DF08EC0C3F08FC0C4F090C0C5F091C02E
:1077E400C6F0C3C0BFF0C4C0C0F0C5C0C1F0C6C0BD
:1077F400C2F008EF3CF0020EF319D8A404EF3CF0F9
:1078040006EF3CF008EF3CF0D0EF3AF01200BFC0B6
:1078140035F0C0C036F0C1C037F0C2C038F0000E39
:10782400396E000E3A6E000E3B6E000E3C6E94EC08
:1078340067F0D8A020EF3CF022EF3CF02DEF3CF0B5
:10784400000E0001BF6F000EC06F800EC16F3F0EAF
:10785400C26F80EF3DF0180E0F6E720E106E310E77
:10786400116E440E126EBFC013F0C0C014F0C1C03C
:1078740015F0C2C016F0E7EC5BF0D8B044EF3CF072
:1078840046EF3CF056EF3CF0000E01015B6F220E18
:107894005A6FFF0E0001BF6FFF0EC06F7F0EC16FE6
:1078A4007F0EC26F80EF3DF0BFC00FF0C0C010F07C
:1078B400C1C011F0C2C012F0870E136E480E146ED0
:1078C4003A0E156EC40E166EE7EC5BF0D8B06DEF91
:1078D4003CF06FEF3CF07FEF3CF0000E01015B6F7A
:1078E400220E5A6F000E0001BF6F000EC06F000E13
:1078F400C16F000EC26F80EF3DF00001C2BF85EF83
:107904003CF088EF3CF0010E89EF3CF0000EC96FAB
:10791400C951D8B490EF3CF092EF3CF0A4EF3CF0A6
:10792400BFC00FF0C0C010F0C1C011F0C2C012F04F
:10793400B6EC75F00FC0BFF010C0C0F011C0C1F0BC
:1079440012C0C2F0BFC068F0C0C069F0C1C06AF024
:10795400C2C06BF03B0E00016C6FAA0E6D6FB80EC7
:107964006E6F3F0E6F6FA7EC2FF068C0BFF069C059
:10797400C0F06AC0C1F06BC0C2F0BFC09EF0C0C00E
:107984009FF0C1C0A0F0C2C0A1F0C8EC52F09EC0EC
:10799400C3F09FC0C4F0A0C0C5F0A1C0C6F0C3C06E
:1079A4001DF0C4C01EF0C5C01FF0C6C020F0E2EC3C
:1079B4005AF01DC0C7F01EC0C8F0BFC09EF0C0C0C2
:1079C4009FF0C1C0A0F0C2C0A1F0C7C027F0C8C0DA
:1079D40028F0000E28BEFF0E296E2A6E010EF6EC6A
:1079E40048F027C0A2F028C0A3F029C0A4F02AC000
:1079F400A5F09CEC74F09EC0BFF09FC0C0F0A0C086
:107A0400C1F0A1C0C2F0BFC09EF0C0C09FF0C1C011
:107A1400A0F0C2C0A1F0BE0E0001A26F220EA36F9F
:107A2400000EA56F090EA46F65EC5BF09EC0AEF06E
:107A34009FC0AFF0A0C0B0F0A1C0B1F0C7C0B2F019
:107A4400C8C0B3F0AFEC54F0AEC0BFF0AFC0C0F0EC
:107A5400B0C0C1F0B1C0C2F00001C951D8B435EF13
:107A64003DF037EF3DF078EF3DF0BFC035F0C0C0DA
:107A740036F0C1C037F0C2C038F0FF0E396EFF0EC9
:107A84003A6E7F0E3B6E7F0E3C6E94EC67F0D8A08E
:107A94004EEF3DF050EF3DF05BEF3DF0000E000186
:107AA400BF6F000EC06F000EC16F000EC26F80EF7B
:107AB4003DF0000E0001A66F000EA76F800EA86FA8
:107AC4003F0EA96FBFC0AAF0C0C0ABF0C1C0ACF0FC
:107AD400C2C0ADF0CBEC33F0A6C0BFF0A7C0C0F07D
